{
  "contractName": "EBookStore",
  "abi": [
    {
      "inputs": [],
      "stateMutability": "nonpayable",
      "type": "constructor"
    },
    {
      "inputs": [
        {
          "internalType": "uint256",
          "name": "price",
          "type": "uint256"
        },
        {
          "internalType": "string",
          "name": "isbn",
          "type": "string"
        }
      ],
      "name": "addEBook",
      "outputs": [],
      "stateMutability": "nonpayable",
      "type": "function"
    },
    {
      "inputs": [
        {
          "internalType": "string",
          "name": "isbn",
          "type": "string"
        }
      ],
      "name": "buyEBook",
      "outputs": [],
      "stateMutability": "payable",
      "type": "function",
      "payable": true
    },
    {
      "inputs": [],
      "name": "getPurchasedEBooks",
      "outputs": [
        {
          "components": [
            {
              "internalType": "uint256",
              "name": "price",
              "type": "uint256"
            },
            {
              "internalType": "string",
              "name": "isbn",
              "type": "string"
            },
            {
              "internalType": "uint256",
              "name": "purchaseDate",
              "type": "uint256"
            },
            {
              "internalType": "address",
              "name": "buyer",
              "type": "address"
            }
          ],
          "internalType": "struct EBookStore.EbookBuyed[]",
          "name": "",
          "type": "tuple[]"
        }
      ],
      "stateMutability": "view",
      "type": "function",
      "constant": true
    },
    {
      "inputs": [],
      "name": "getAllEBooks",
      "outputs": [
        {
          "components": [
            {
              "internalType": "uint256",
              "name": "price",
              "type": "uint256"
            },
            {
              "internalType": "string",
              "name": "isbn",
              "type": "string"
            }
          ],
          "internalType": "struct EBookStore.Ebook[]",
          "name": "",
          "type": "tuple[]"
        }
      ],
      "stateMutability": "view",
      "type": "function",
      "constant": true
    },
    {
      "inputs": [],
      "name": "isOwner",
      "outputs": [
        {
          "internalType": "bool",
          "name": "",
          "type": "bool"
        }
      ],
      "stateMutability": "view",
      "type": "function",
      "constant": true
    },
    {
      "inputs": [],
      "name": "withdrawAll",
      "outputs": [],
      "stateMutability": "nonpayable",
      "type": "function"
    },
    {
      "inputs": [],
      "name": "getContractBalance",
      "outputs": [
        {
          "internalType": "uint256",
          "name": "",
          "type": "uint256"
        }
      ],
      "stateMutability": "view",
      "type": "function",
      "constant": true
    }
  ],
  "bytecode": "0x60806040523480156200001157600080fd5b5033600360006101000a81548173ffffffffffffffffffffffffffffffffffffffff021916908373ffffffffffffffffffffffffffffffffffffffff160217905550620000a1661def02b5860c1c6040518060400160405280600d81526020017f3937383838323030373738373400000000000000000000000000000000000000815250620001df60201b60201c565b620000ef6603a4bff22f8c1c6040518060400160405280600d81526020017f3937383838303632333535353800000000000000000000000000000000000000815250620001df60201b60201c565b6200013d66056b7f4492cc1c6040518060400160405280600d81526020017f3937383838313136303834333400000000000000000000000000000000000000815250620001df60201b60201c565b6200018b6616d4056bf90c1c6040518060400160405280600d81526020017f3937383838303436363836393800000000000000000000000000000000000000815250620001df60201b60201c565b620001d966134686c7328c1c6040518060400160405280600d81526020017f3937383838303632323230383400000000000000000000000000000000000000815250620001df60201b60201c565b6200075f565b620001ef620003a360201b60201c565b62000231576040517f08c379a00000000000000000000000000000000000000000000000000000000081526004016200022890620005b4565b60405180910390fd5b600d81511462000278576040517f08c379a00000000000000000000000000000000000000000000000000000000081526004016200026f9062000570565b60405180910390fd5b60006002826040516200028c919062000557565b90815260200160405180910390206000015414620002e1576040517f08c379a0000000000000000000000000000000000000000000000000000000008152600401620002d89062000592565b60405180910390fd5b60006040518060400160405280848152602001838152509050806002836040516200030d919062000557565b908152602001604051809103902060008201518160000155602082015181600101908051906020019062000343929190620003fb565b5090505060008190806001815401808255809150506001900390600052602060002090600202016000909190919091506000820151816000015560208201518160010190805190602001906200039b929190620003fb565b505050505050565b6000600360009054906101000a900473ffffffffffffffffffffffffffffffffffffffff1673ffffffffffffffffffffffffffffffffffffffff163373ffffffffffffffffffffffffffffffffffffffff1614905090565b828054620004099062000633565b90600052602060002090601f0160209004810192826200042d576000855562000479565b82601f106200044857805160ff191683800117855562000479565b8280016001018555821562000479579182015b82811115620004785782518255916020019190600101906200045b565b5b5090506200048891906200048c565b5090565b5b80821115620004a75760008160009055506001016200048d565b5090565b6000620004b882620005d6565b620004c48185620005f2565b9350620004d6818560208601620005fd565b80840191505092915050565b6000620004f1600f83620005e1565b9150620004fe8262000698565b602082019050919050565b600062000518602183620005e1565b91506200052582620006c1565b604082019050919050565b60006200053f602583620005e1565b91506200054c8262000710565b604082019050919050565b6000620005658284620004ab565b915081905092915050565b600060208201905081810360008301526200058b81620004e2565b9050919050565b60006020820190508181036000830152620005ad8162000509565b9050919050565b60006020820190508181036000830152620005cf8162000530565b9050919050565b600081519050919050565b600082825260208201905092915050565b600081905092915050565b60005b838110156200061d57808201518184015260208101905062000600565b838111156200062d576000848401525b50505050565b600060028204905060018216806200064c57607f821691505b6020821081141562000663576200066262000669565b5b50919050565b7f4e487b7100000000000000000000000000000000000000000000000000000000600052602260045260246000fd5b7f4953424e206e6f6e2076616c69646f0000000000000000000000000000000000600082015250565b7f45626f6f6b20676961272070726573656e7465206e656c20636f6e747261747460008201527f6f00000000000000000000000000000000000000000000000000000000000000602082015250565b7f4e6f6e2073656920696c2070726f70726965746172696f2064656c20636f6e7460008201527f726174746f000000000000000000000000000000000000000000000000000000602082015250565b611901806200076f6000396000f3fe6080604052600436106100705760003560e01c8063853828b61161004e578063853828b6146100f45780638f32d59b1461010b578063ef09860414610136578063fa2b11e71461016157610070565b806325059ba5146100755780633a4a783b146100a05780636f9fb98a146100c9575b600080fd5b34801561008157600080fd5b5061008a61017d565b60405161009791906111df565b60405180910390f35b3480156100ac57600080fd5b506100c760048036038101906100c29190610dc4565b610315565b005b3480156100d557600080fd5b506100de6104c0565b6040516100eb919061133e565b60405180910390f35b34801561010057600080fd5b50610109610511565b005b34801561011757600080fd5b50610120610679565b60405161012d9190611223565b60405180910390f35b34801561014257600080fd5b5061014b6106d1565b6040516101589190611201565b60405180910390f35b61017b60048036038101906101769190610d7b565b6107cc565b005b6060600160003373ffffffffffffffffffffffffffffffffffffffff1673ffffffffffffffffffffffffffffffffffffffff168152602001908152602001600020805480602002602001604051908101604052809291908181526020016000905b8282101561030c57838290600052602060002090600402016040518060800160405290816000820154815260200160018201805461021b90611544565b80601f016020809104026020016040519081016040528092919081815260200182805461024790611544565b80156102945780601f1061026957610100808354040283529160200191610294565b820191906000526020600020905b81548152906001019060200180831161027757829003601f168201915b50505050508152602001600282015481526020016003820160009054906101000a900473ffffffffffffffffffffffffffffffffffffffff1673ffffffffffffffffffffffffffffffffffffffff1673ffffffffffffffffffffffffffffffffffffffff1681525050815260200190600101906101de565b50505050905090565b61031d610679565b61035c576040517f08c379a0000000000000000000000000000000000000000000000000000000008152600401610353906112fe565b60405180910390fd5b600d8151146103a0576040517f08c379a00000000000000000000000000000000000000000000000000000000081526004016103979061127e565b60405180910390fd5b60006002826040516103b291906111b3565b90815260200160405180910390206000015414610404576040517f08c379a00000000000000000000000000000000000000000000000000000000081526004016103fb9061129e565b60405180910390fd5b600060405180604001604052808481526020018381525090508060028360405161042e91906111b3565b9081526020016040518091039020600082015181600001556020820151816001019080519060200190610462929190610c53565b5090505060008190806001815401808255809150506001900390600052602060002090600202016000909190919091506000820151816000015560208201518160010190805190602001906104b8929190610c53565b505050505050565b60006104ca610679565b610509576040517f08c379a0000000000000000000000000000000000000000000000000000000008152600401610500906112fe565b60405180910390fd5b600454905090565b610519610679565b610558576040517f08c379a000000000000000000000000000000000000000000000000000000000815260040161054f906112fe565b60405180910390fd5b6000600454141561059e576040517f08c379a00000000000000000000000000000000000000000000000000000000081526004016105959061131e565b60405180910390fd5b6000600360009054906101000a900473ffffffffffffffffffffffffffffffffffffffff1673ffffffffffffffffffffffffffffffffffffffff166004546040516105e8906111ca565b60006040518083038185875af1925050503d8060008114610625576040519150601f19603f3d011682016040523d82523d6000602084013e61062a565b606091505b505090508061066e576040517f08c379a0000000000000000000000000000000000000000000000000000000008152600401610665906112de565b60405180910390fd5b600060048190555050565b6000600360009054906101000a900473ffffffffffffffffffffffffffffffffffffffff1673ffffffffffffffffffffffffffffffffffffffff163373ffffffffffffffffffffffffffffffffffffffff1614905090565b60606000805480602002602001604051908101604052809291908181526020016000905b828210156107c357838290600052602060002090600202016040518060400160405290816000820154815260200160018201805461073290611544565b80601f016020809104026020016040519081016040528092919081815260200182805461075e90611544565b80156107ab5780601f10610780576101008083540402835291602001916107ab565b820191906000526020600020905b81548152906001019060200180831161078e57829003601f168201915b505050505081525050815260200190600101906106f5565b50505050905090565b6107d4610679565b15610814576040517f08c379a000000000000000000000000000000000000000000000000000000000815260040161080b9061125e565b60405180910390fd5b60028160405161082491906111b3565b9081526020016040518091039020600001543414610877576040517f08c379a000000000000000000000000000000000000000000000000000000000815260040161086e9061123e565b60405180910390fd5b6000600160003373ffffffffffffffffffffffffffffffffffffffff1673ffffffffffffffffffffffffffffffffffffffff168152602001908152602001600020805480602002602001604051908101604052809291908181526020016000905b82821015610a0657838290600052602060002090600402016040518060800160405290816000820154815260200160018201805461091590611544565b80601f016020809104026020016040519081016040528092919081815260200182805461094190611544565b801561098e5780601f106109635761010080835404028352916020019161098e565b820191906000526020600020905b81548152906001019060200180831161097157829003601f168201915b50505050508152602001600282015481526020016003820160009054906101000a900473ffffffffffffffffffffffffffffffffffffffff1673ffffffffffffffffffffffffffffffffffffffff1673ffffffffffffffffffffffffffffffffffffffff1681525050815260200190600101906108d8565b5050505090506000805b8251811015610ad457828181518110610a2c57610a2b61164e565b5b60200260200101516020015151845114610a4557610ac1565b828181518110610a5857610a5761164e565b5b602002602001015160200151604051602001610a7491906111b3565b6040516020818303038152906040528051906020012084604051602001610a9b91906111b3565b604051602081830303815290604052805190602001201415610ac05760019150610ad4565b5b8080610acc906115a7565b915050610a10565b508015610b16576040517f08c379a0000000000000000000000000000000000000000000000000000000008152600401610b0d906112be565b60405180910390fd5b600060405180608001604052803481526020018581526020014281526020013373ffffffffffffffffffffffffffffffffffffffff168152509050600160003373ffffffffffffffffffffffffffffffffffffffff1673ffffffffffffffffffffffffffffffffffffffff168152602001908152602001600020819080600181540180825580915050600190039060005260206000209060040201600090919091909150600082015181600001556020820151816001019080519060200190610be0929190610c53565b506040820151816002015560608201518160030160006101000a81548173ffffffffffffffffffffffffffffffffffffffff021916908373ffffffffffffffffffffffffffffffffffffffff16021790555050503460046000828254610c469190611464565b9250508190555050505050565b828054610c5f90611544565b90600052602060002090601f016020900481019282610c815760008555610cc8565b82601f10610c9a57805160ff1916838001178555610cc8565b82800160010185558215610cc8579182015b82811115610cc7578251825591602001919060010190610cac565b5b509050610cd59190610cd9565b5090565b5b80821115610cf2576000816000905550600101610cda565b5090565b6000610d09610d048461137e565b611359565b905082815260208101848484011115610d2557610d246116b1565b5b610d30848285611502565b509392505050565b600082601f830112610d4d57610d4c6116ac565b5b8135610d5d848260208601610cf6565b91505092915050565b600081359050610d75816118b4565b92915050565b600060208284031215610d9157610d906116bb565b5b600082013567ffffffffffffffff811115610daf57610dae6116b6565b5b610dbb84828501610d38565b91505092915050565b60008060408385031215610ddb57610dda6116bb565b5b6000610de985828601610d66565b925050602083013567ffffffffffffffff811115610e0a57610e096116b6565b5b610e1685828601610d38565b9150509250929050565b6000610e2c83836110f5565b905092915050565b6000610e408383611158565b905092915050565b610e51816114ba565b82525050565b6000610e62826113cf565b610e6c818561140a565b935083602082028501610e7e856113af565b8060005b85811015610eba5784840389528151610e9b8582610e20565b9450610ea6836113f0565b925060208a01995050600181019050610e82565b50829750879550505050505092915050565b6000610ed7826113da565b610ee1818561141b565b935083602082028501610ef3856113bf565b8060005b85811015610f2f5784840389528151610f108582610e34565b9450610f1b836113fd565b925060208a01995050600181019050610ef7565b50829750879550505050505092915050565b610f4a816114cc565b82525050565b6000610f5b826113e5565b610f658185611437565b9350610f75818560208601611511565b610f7e816116c0565b840191505092915050565b6000610f94826113e5565b610f9e8185611459565b9350610fae818560208601611511565b80840191505092915050565b6000610fc7602283611448565b9150610fd2826116d1565b604082019050919050565b6000610fea603c83611448565b9150610ff582611720565b604082019050919050565b600061100d600f83611448565b91506110188261176f565b602082019050919050565b6000611030602183611448565b915061103b82611798565b604082019050919050565b6000611053601583611448565b915061105e826117e7565b602082019050919050565b6000611076601583611448565b915061108182611810565b602082019050919050565b600061109960008361142c565b91506110a482611839565b600082019050919050565b60006110bc602583611448565b91506110c78261183c565b604082019050919050565b60006110df601e83611448565b91506110ea8261188b565b602082019050919050565b600060808301600083015161110d6000860182611195565b50602083015184820360208601526111258282610f50565b915050604083015161113a6040860182611195565b50606083015161114d6060860182610e48565b508091505092915050565b60006040830160008301516111706000860182611195565b50602083015184820360208601526111888282610f50565b9150508091505092915050565b61119e816114f8565b82525050565b6111ad816114f8565b82525050565b60006111bf8284610f89565b915081905092915050565b60006111d58261108c565b9150819050919050565b600060208201905081810360008301526111f98184610e57565b905092915050565b6000602082019050818103600083015261121b8184610ecc565b905092915050565b60006020820190506112386000830184610f41565b92915050565b6000602082019050818103600083015261125781610fba565b9050919050565b6000602082019050818103600083015261127781610fdd565b9050919050565b6000602082019050818103600083015261129781611000565b9050919050565b600060208201905081810360008301526112b781611023565b9050919050565b600060208201905081810360008301526112d781611046565b9050919050565b600060208201905081810360008301526112f781611069565b9050919050565b60006020820190508181036000830152611317816110af565b9050919050565b60006020820190508181036000830152611337816110d2565b9050919050565b600060208201905061135360008301846111a4565b92915050565b6000611363611374565b905061136f8282611576565b919050565b6000604051905090565b600067ffffffffffffffff8211156113995761139861167d565b5b6113a2826116c0565b9050602081019050919050565b6000819050602082019050919050565b6000819050602082019050919050565b600081519050919050565b600081519050919050565b600081519050919050565b6000602082019050919050565b6000602082019050919050565b600082825260208201905092915050565b600082825260208201905092915050565b600081905092915050565b600082825260208201905092915050565b600082825260208201905092915050565b600081905092915050565b600061146f826114f8565b915061147a836114f8565b9250827fffffffffffffffffffffffffffffffffffffffffffffffffffffffffffffffff038211156114af576114ae6115f0565b5b828201905092915050565b60006114c5826114d8565b9050919050565b60008115159050919050565b600073ffffffffffffffffffffffffffffffffffffffff82169050919050565b6000819050919050565b82818337600083830152505050565b60005b8381101561152f578082015181840152602081019050611514565b8381111561153e576000848401525b50505050565b6000600282049050600182168061155c57607f821691505b602082108114156115705761156f61161f565b5b50919050565b61157f826116c0565b810181811067ffffffffffffffff8211171561159e5761159d61167d565b5b80604052505050565b60006115b2826114f8565b91507fffffffffffffffffffffffffffffffffffffffffffffffffffffffffffffffff8214156115e5576115e46115f0565b5b600182019050919050565b7f4e487b7100000000000000000000000000000000000000000000000000000000600052601160045260246000fd5b7f4e487b7100000000000000000000000000000000000000000000000000000000600052602260045260246000fd5b7f4e487b7100000000000000000000000000000000000000000000000000000000600052603260045260246000fd5b7f4e487b7100000000000000000000000000000000000000000000000000000000600052604160045260246000fd5b600080fd5b600080fd5b600080fd5b600080fd5b6000601f19601f8301169050919050565b7f53616c646f20696e73756666696369656e746520706572206c2761637175697360008201527f746f000000000000000000000000000000000000000000000000000000000000602082015250565b7f53656920696c2070726f70726965746172696f2064656c20636f6e747261747460008201527f6f2c206e6f6e2070756f692061637175697374617265206c6962726900000000602082015250565b7f4953424e206e6f6e2076616c69646f0000000000000000000000000000000000600082015250565b7f45626f6f6b20676961272070726573656e7465206e656c20636f6e747261747460008201527f6f00000000000000000000000000000000000000000000000000000000000000602082015250565b7f45626f6f6b2067696127206163717569737461746f0000000000000000000000600082015250565b7f54726173666572696d656e746f2066616c6c69746f0000000000000000000000600082015250565b50565b7f4e6f6e2073656920696c2070726f70726965746172696f2064656c20636f6e7460008201527f726174746f000000000000000000000000000000000000000000000000000000602082015250565b7f4e6f6e20636920736f6e6f20666f6e6469206461207072656c65766172650000600082015250565b6118bd816114f8565b81146118c857600080fd5b5056fea2646970667358221220951492693ad2c31a2f2ab64d41dbb1c606abe8006ce0fa9598f5c13e0ed0f6d664736f6c63430008070033",
  "immutableReferences": {},
  "source": "//SPDX-License-Identifier: UNLICENSED\r\npragma solidity ^0.8.0;\r\n\r\ncontract EBookStore {\r\n  struct Ebook {\r\n    uint256 price;\r\n    string isbn;\r\n  }\r\n\r\n  struct EbookBuyed {\r\n    uint256 price;\r\n    string isbn;\r\n    uint purchaseDate;\r\n    address buyer;\r\n  }\r\n\r\n  Ebook[] private ebookNelContrattolist;\r\n  mapping(address => EbookBuyed[]) private ebookAcquistati;\r\n  mapping(string => Ebook) private ebookNelContratto;\r\n\r\n  address private seller;\r\n  uint256 private balance;\r\n\r\n  constructor() {\r\n    seller = msg.sender;\r\n    addEBook(8425569239043100, \"9788820077874\");\r\n    addEBook(1025569239043100, \"9788806235558\");\r\n    addEBook(1525569239043100, \"9788811608434\");\r\n    addEBook(6425569239043100, \"9788804668698\");\r\n    addEBook(5425569239043100, \"9788806222084\");\r\n  }\r\n\r\n  function addEBook(uint256 price, string memory isbn) public {\r\n    require(isOwner(), \"Non sei il proprietario del contratto\");\r\n    require(bytes(isbn).length == 13, \"ISBN non valido\");\r\n    require(ebookNelContratto[isbn].price == 0, \"Ebook gia' presente nel contratto\");\r\n    Ebook memory ebook = Ebook(price, isbn);\r\n    ebookNelContratto[isbn] = ebook;\r\n    ebookNelContrattolist.push(ebook);\r\n  }\r\n\r\n  function buyEBook(string memory isbn) public payable {\r\n    require(!isOwner(), \"Sei il proprietario del contratto, non puoi acquistare libri\");\r\n    require(msg.value == ebookNelContratto[isbn].price, \"Saldo insufficiente per l'acquisto\");\r\n    EbookBuyed[] memory ebooks = ebookAcquistati[msg.sender];\r\n    bool giaAcquistato = false;\r\n    for (uint256 i = 0; i < ebooks.length; i++) {\r\n      if (bytes(isbn).length != bytes(ebooks[i].isbn).length) {\r\n        continue;\r\n      }\r\n      if (keccak256(abi.encodePacked(isbn)) == keccak256(abi.encodePacked(ebooks[i].isbn))) {\r\n        giaAcquistato = true;\r\n        break;\r\n      }\r\n    }\r\n    require(!giaAcquistato, \"Ebook gia' acquistato\");\r\n    EbookBuyed memory ebookcomprato = EbookBuyed(msg.value, isbn, block.timestamp, msg.sender);\r\n    ebookAcquistati[msg.sender].push(ebookcomprato);\r\n    balance += msg.value;\r\n  }\r\n\r\n  function getPurchasedEBooks() public view returns (EbookBuyed[] memory) {\r\n    return ebookAcquistati[msg.sender];\r\n  }\r\n\r\n  function getAllEBooks() public view returns (Ebook[] memory) {\r\n    return ebookNelContrattolist;\r\n  }\r\n\r\n  function isOwner() public view returns (bool) {\r\n    return msg.sender == seller;\r\n  }\r\n\r\n  function withdrawAll() public {\r\n    require(isOwner(), \"Non sei il proprietario del contratto\");\r\n    require(balance!=0, \"Non ci sono fondi da prelevare\");\r\n    (bool success,) = seller.call{value : balance}(\"\");\r\n    require(success, \"Trasferimento fallito\");\r\n    balance = 0;\r\n  }\r\n\r\n  function getContractBalance() public view returns (uint){\r\n    require(isOwner(), \"Non sei il proprietario del contratto\");\r\n    return balance;\r\n  }\r\n\r\n}\r\n",
  "sourcePath": "C:\\Users\\vinciraia99\\IdeaProjects\\bookproject\\Blockchain\\contracts\\EbookStore.sol",
  "compiler": {
    "name": "solc",
    "version": "0.8.7+commit.e28d00a7.Emscripten.clang"
  },
  "schemaVersion": "3.4.12",
  "updatedAt": "2023-02-26T18:16:39.921Z",
  "networkType": "ethereum",
  "devdoc": {
    "kind": "dev",
    "methods": {},
    "version": 1
  },
  "userdoc": {
    "kind": "user",
    "methods": {},
    "version": 1
  }
}