{
  "contractName": "EBookStoreFinal",
  "abi": [
    {
      "inputs": [],
      "stateMutability": "nonpayable",
      "type": "constructor"
    },
    {
      "inputs": [
        {
          "internalType": "uint256",
          "name": "price",
          "type": "uint256"
        },
        {
          "internalType": "string",
          "name": "isbn",
          "type": "string"
        }
      ],
      "name": "addEBook",
      "outputs": [],
      "stateMutability": "nonpayable",
      "type": "function"
    },
    {
      "inputs": [
        {
          "internalType": "string",
          "name": "isbn",
          "type": "string"
        }
      ],
      "name": "buyEBook",
      "outputs": [],
      "stateMutability": "payable",
      "type": "function",
      "payable": true
    },
    {
      "inputs": [],
      "name": "getPurchasedEBooks",
      "outputs": [
        {
          "components": [
            {
              "internalType": "uint256",
              "name": "price",
              "type": "uint256"
            },
            {
              "internalType": "string",
              "name": "isbn",
              "type": "string"
            },
            {
              "internalType": "uint256",
              "name": "purchaseDate",
              "type": "uint256"
            },
            {
              "internalType": "address",
              "name": "buyer",
              "type": "address"
            }
          ],
          "internalType": "struct EBookStoreFinal.EbookBuyed[]",
          "name": "",
          "type": "tuple[]"
        }
      ],
      "stateMutability": "view",
      "type": "function",
      "constant": true
    },
    {
      "inputs": [],
      "name": "getAllEBooks",
      "outputs": [
        {
          "components": [
            {
              "internalType": "uint256",
              "name": "price",
              "type": "uint256"
            },
            {
              "internalType": "string",
              "name": "isbn",
              "type": "string"
            }
          ],
          "internalType": "struct EBookStoreFinal.Ebook[]",
          "name": "",
          "type": "tuple[]"
        }
      ],
      "stateMutability": "view",
      "type": "function",
      "constant": true
    },
    {
      "inputs": [],
      "name": "isOwner",
      "outputs": [
        {
          "internalType": "bool",
          "name": "",
          "type": "bool"
        }
      ],
      "stateMutability": "view",
      "type": "function",
      "constant": true
    },
    {
      "inputs": [
        {
          "internalType": "uint256",
          "name": "amount",
          "type": "uint256"
        }
      ],
      "name": "withdraw",
      "outputs": [],
      "stateMutability": "nonpayable",
      "type": "function"
    },
    {
      "inputs": [],
      "name": "getContractBalance",
      "outputs": [
        {
          "internalType": "uint256",
          "name": "",
          "type": "uint256"
        }
      ],
      "stateMutability": "view",
      "type": "function",
      "constant": true
    }
  ],
  "bytecode": "0x60806040523480156200001157600080fd5b5033600360006101000a81548173ffffffffffffffffffffffffffffffffffffffff021916908373ffffffffffffffffffffffffffffffffffffffff160217905550620000a16616d4056bf90c1c6040518060400160405280600d81526020017f3132333435363738393031323300000000000000000000000000000000000000815250620000a760201b60201c565b62000a28565b620000b76200027a60201b60201c565b620000f9576040517f08c379a0000000000000000000000000000000000000000000000000000000008152600401620000f0906200076a565b60405180910390fd5b600d6200010c82620002d260201b60201c565b146200014f576040517f08c379a0000000000000000000000000000000000000000000000000000000008152600401620001469062000726565b60405180910390fd5b60006002826040516200016391906200070d565b90815260200160405180910390206000015414620001b8576040517f08c379a0000000000000000000000000000000000000000000000000000000008152600401620001af9062000748565b60405180910390fd5b6000604051806040016040528084815260200183815250905080600283604051620001e491906200070d565b90815260200160405180910390206000820151816000015560208201518160010190805190602001906200021a929190620005b1565b50905050600081908060018154018082558091505060019003906000526020600020906002020160009091909190915060008201518160000155602082015181600101908051906020019062000272929190620005b1565b505050505050565b6000600360009054906101000a900473ffffffffffffffffffffffffffffffffffffffff1673ffffffffffffffffffffffffffffffffffffffff163373ffffffffffffffffffffffffffffffffffffffff1614905090565b6000806000905060008390505b8051821015620005aa57600060f81b600782848151811062000306576200030562000932565b5b602001015160f81c60f81b7effffffffffffffffffffffffffffffffffffffffffffffffffffffffffffff1916901c7effffffffffffffffffffffffffffffffffffffffffffffffffffffffffffff1916141562000375576001826200036d9190620007b3565b915062000594565b600660f81b7effffffffffffffffffffffffffffffffffffffffffffffffffffffffffffff19166005828481518110620003b457620003b362000932565b5b602001015160f81c60f81b7effffffffffffffffffffffffffffffffffffffffffffffffffffffffffffff1916901c7effffffffffffffffffffffffffffffffffffffffffffffffffffffffffffff1916141562000423576002826200041b9190620007b3565b915062000593565b600e60f81b7effffffffffffffffffffffffffffffffffffffffffffffffffffffffffffff1916600482848151811062000462576200046162000932565b5b602001015160f81c60f81b7effffffffffffffffffffffffffffffffffffffffffffffffffffffffffffff1916901c7effffffffffffffffffffffffffffffffffffffffffffffffffffffffffffff19161415620004d157600382620004c99190620007b3565b915062000592565b601e60f81b7effffffffffffffffffffffffffffffffffffffffffffffffffffffffffffff1916600382848151811062000510576200050f62000932565b5b602001015160f81c60f81b7effffffffffffffffffffffffffffffffffffffffffffffffffffffffffffff1916901c7effffffffffffffffffffffffffffffffffffffffffffffffffffffffffffff191614156200057f57600482620005779190620007b3565b915062000591565b6001826200058e9190620007b3565b91505b5b5b5b8280620005a19062000886565b935050620002df565b5050919050565b828054620005bf9062000850565b90600052602060002090601f016020900481019282620005e357600085556200062f565b82601f10620005fe57805160ff19168380011785556200062f565b828001600101855582156200062f579182015b828111156200062e57825182559160200191906001019062000611565b5b5090506200063e919062000642565b5090565b5b808211156200065d57600081600090555060010162000643565b5090565b60006200066e826200078c565b6200067a8185620007a8565b93506200068c8185602086016200081a565b80840191505092915050565b6000620006a7600f8362000797565b9150620006b48262000961565b602082019050919050565b6000620006ce60218362000797565b9150620006db826200098a565b604082019050919050565b6000620006f560258362000797565b91506200070282620009d9565b604082019050919050565b60006200071b828462000661565b915081905092915050565b60006020820190508181036000830152620007418162000698565b9050919050565b600060208201905081810360008301526200076381620006bf565b9050919050565b600060208201905081810360008301526200078581620006e6565b9050919050565b600081519050919050565b600082825260208201905092915050565b600081905092915050565b6000620007c08262000810565b9150620007cd8362000810565b9250827fffffffffffffffffffffffffffffffffffffffffffffffffffffffffffffffff03821115620008055762000804620008d4565b5b828201905092915050565b6000819050919050565b60005b838110156200083a5780820151818401526020810190506200081d565b838111156200084a576000848401525b50505050565b600060028204905060018216806200086957607f821691505b6020821081141562000880576200087f62000903565b5b50919050565b6000620008938262000810565b91507fffffffffffffffffffffffffffffffffffffffffffffffffffffffffffffffff821415620008c957620008c8620008d4565b5b600182019050919050565b7f4e487b7100000000000000000000000000000000000000000000000000000000600052601160045260246000fd5b7f4e487b7100000000000000000000000000000000000000000000000000000000600052602260045260246000fd5b7f4e487b7100000000000000000000000000000000000000000000000000000000600052603260045260246000fd5b7f4953424e206e6f6e2076616c69646f0000000000000000000000000000000000600082015250565b7f45626f6f6b20676961272070726573656e7465206e656c20636f6e747261747460008201527f6f00000000000000000000000000000000000000000000000000000000000000602082015250565b7f4e6f6e2073656920696c2070726f70726965746172696f2064656c20636f6e7460008201527f726174746f000000000000000000000000000000000000000000000000000000602082015250565b611be28062000a386000396000f3fe6080604052600436106100705760003560e01c80636f9fb98a1161004e5780636f9fb98a146100f25780638f32d59b1461011d578063ef09860414610148578063fa2b11e71461017357610070565b806325059ba5146100755780632e1a7d4d146100a05780633a4a783b146100c9575b600080fd5b34801561008157600080fd5b5061008a61018f565b6040516100979190611509565b60405180910390f35b3480156100ac57600080fd5b506100c760048036038101906100c291906110e4565b610327565b005b3480156100d557600080fd5b506100f060048036038101906100eb9190611111565b610440565b005b3480156100fe57600080fd5b506101076105f2565b6040516101149190611648565b60405180910390f35b34801561012957600080fd5b50610132610641565b60405161013f919061154d565b60405180910390f35b34801561015457600080fd5b5061015d610699565b60405161016a919061152b565b60405180910390f35b61018d6004803603810190610188919061109b565b610794565b005b6060600160003373ffffffffffffffffffffffffffffffffffffffff1673ffffffffffffffffffffffffffffffffffffffff168152602001908152602001600020805480602002602001604051908101604052809291908181526020016000905b8282101561031e57838290600052602060002090600402016040518060800160405290816000820154815260200160018201805461022d9061184e565b80601f01602080910402602001604051908101604052809291908181526020018280546102599061184e565b80156102a65780601f1061027b576101008083540402835291602001916102a6565b820191906000526020600020905b81548152906001019060200180831161028957829003601f168201915b50505050508152602001600282015481526020016003820160009054906101000a900473ffffffffffffffffffffffffffffffffffffffff1673ffffffffffffffffffffffffffffffffffffffff1673ffffffffffffffffffffffffffffffffffffffff1681525050815260200190600101906101f0565b50505050905090565b61032f610641565b61036e576040517f08c379a000000000000000000000000000000000000000000000000000000000815260040161036590611628565b60405180910390fd5b6000600360009054906101000a900473ffffffffffffffffffffffffffffffffffffffff1673ffffffffffffffffffffffffffffffffffffffff16826040516103b6906114f4565b60006040518083038185875af1925050503d80600081146103f3576040519150601f19603f3d011682016040523d82523d6000602084013e6103f8565b606091505b505090508061043c576040517f08c379a000000000000000000000000000000000000000000000000000000000815260040161043390611608565b60405180910390fd5b5050565b610448610641565b610487576040517f08c379a000000000000000000000000000000000000000000000000000000000815260040161047e90611628565b60405180910390fd5b600d61049282610cb6565b146104d2576040517f08c379a00000000000000000000000000000000000000000000000000000000081526004016104c9906115a8565b60405180910390fd5b60006002826040516104e491906114dd565b90815260200160405180910390206000015414610536576040517f08c379a000000000000000000000000000000000000000000000000000000000815260040161052d906115c8565b60405180910390fd5b600060405180604001604052808481526020018381525090508060028360405161056091906114dd565b9081526020016040518091039020600082015181600001556020820151816001019080519060200190610594929190610f73565b5090505060008190806001815401808255809150506001900390600052602060002090600202016000909190919091506000820151816000015560208201518160010190805190602001906105ea929190610f73565b505050505050565b60006105fc610641565b61063b576040517f08c379a000000000000000000000000000000000000000000000000000000000815260040161063290611628565b60405180910390fd5b47905090565b6000600360009054906101000a900473ffffffffffffffffffffffffffffffffffffffff1673ffffffffffffffffffffffffffffffffffffffff163373ffffffffffffffffffffffffffffffffffffffff1614905090565b60606000805480602002602001604051908101604052809291908181526020016000905b8282101561078b5783829060005260206000209060020201604051806040016040529081600082015481526020016001820180546106fa9061184e565b80601f01602080910402602001604051908101604052809291908181526020018280546107269061184e565b80156107735780601f1061074857610100808354040283529160200191610773565b820191906000526020600020905b81548152906001019060200180831161075657829003601f168201915b505050505081525050815260200190600101906106bd565b50505050905090565b61079c610641565b156107dc576040517f08c379a00000000000000000000000000000000000000000000000000000000081526004016107d390611588565b60405180910390fd5b600d6107e782610cb6565b14610827576040517f08c379a000000000000000000000000000000000000000000000000000000000815260040161081e906115a8565b60405180910390fd5b60028160405161083791906114dd565b908152602001604051809103902060000154341461088a576040517f08c379a000000000000000000000000000000000000000000000000000000000815260040161088190611568565b60405180910390fd5b6000600160003373ffffffffffffffffffffffffffffffffffffffff1673ffffffffffffffffffffffffffffffffffffffff168152602001908152602001600020805480602002602001604051908101604052809291908181526020016000905b82821015610a195783829060005260206000209060040201604051806080016040529081600082015481526020016001820180546109289061184e565b80601f01602080910402602001604051908101604052809291908181526020018280546109549061184e565b80156109a15780601f10610976576101008083540402835291602001916109a1565b820191906000526020600020905b81548152906001019060200180831161098457829003601f168201915b50505050508152602001600282015481526020016003820160009054906101000a900473ffffffffffffffffffffffffffffffffffffffff1673ffffffffffffffffffffffffffffffffffffffff1673ffffffffffffffffffffffffffffffffffffffff1681525050815260200190600101906108eb565b5050505090506000805b8251811015610ae757828181518110610a3f57610a3e611958565b5b60200260200101516020015151845114610a5857610ad4565b828181518110610a6b57610a6a611958565b5b602002602001015160200151604051602001610a8791906114dd565b6040516020818303038152906040528051906020012084604051602001610aae91906114dd565b604051602081830303815290604052805190602001201415610ad35760019150610ae7565b5b8080610adf906118b1565b915050610a23565b508015610b29576040517f08c379a0000000000000000000000000000000000000000000000000000000008152600401610b20906115e8565b60405180910390fd5b600360009054906101000a900473ffffffffffffffffffffffffffffffffffffffff1673ffffffffffffffffffffffffffffffffffffffff166108fc349081150290604051600060405180830381858888f19350505050158015610b91573d6000803e3d6000fd5b50600060405180608001604052803481526020018581526020014281526020013373ffffffffffffffffffffffffffffffffffffffff168152509050600160003373ffffffffffffffffffffffffffffffffffffffff1673ffffffffffffffffffffffffffffffffffffffff168152602001908152602001600020819080600181540180825580915050600190039060005260206000209060040201600090919091909150600082015181600001556020820151816001019080519060200190610c5c929190610f73565b506040820151816002015560608201518160030160006101000a81548173ffffffffffffffffffffffffffffffffffffffff021916908373ffffffffffffffffffffffffffffffffffffffff160217905550505050505050565b6000806000905060008390505b8051821015610f6c57600060f81b6007828481518110610ce657610ce5611958565b5b602001015160f81c60f81b7effffffffffffffffffffffffffffffffffffffffffffffffffffffffffffff1916901c7effffffffffffffffffffffffffffffffffffffffffffffffffffffffffffff19161415610d5157600182610d4a919061176e565b9150610f59565b600660f81b7effffffffffffffffffffffffffffffffffffffffffffffffffffffffffffff19166005828481518110610d8d57610d8c611958565b5b602001015160f81c60f81b7effffffffffffffffffffffffffffffffffffffffffffffffffffffffffffff1916901c7effffffffffffffffffffffffffffffffffffffffffffffffffffffffffffff19161415610df857600282610df1919061176e565b9150610f58565b600e60f81b7effffffffffffffffffffffffffffffffffffffffffffffffffffffffffffff19166004828481518110610e3457610e33611958565b5b602001015160f81c60f81b7effffffffffffffffffffffffffffffffffffffffffffffffffffffffffffff1916901c7effffffffffffffffffffffffffffffffffffffffffffffffffffffffffffff19161415610e9f57600382610e98919061176e565b9150610f57565b601e60f81b7effffffffffffffffffffffffffffffffffffffffffffffffffffffffffffff19166003828481518110610edb57610eda611958565b5b602001015160f81c60f81b7effffffffffffffffffffffffffffffffffffffffffffffffffffffffffffff1916901c7effffffffffffffffffffffffffffffffffffffffffffffffffffffffffffff19161415610f4657600482610f3f919061176e565b9150610f56565b600182610f53919061176e565b91505b5b5b5b8280610f64906118b1565b935050610cc3565b5050919050565b828054610f7f9061184e565b90600052602060002090601f016020900481019282610fa15760008555610fe8565b82601f10610fba57805160ff1916838001178555610fe8565b82800160010185558215610fe8579182015b82811115610fe7578251825591602001919060010190610fcc565b5b509050610ff59190610ff9565b5090565b5b80821115611012576000816000905550600101610ffa565b5090565b600061102961102484611688565b611663565b905082815260208101848484011115611045576110446119bb565b5b61105084828561180c565b509392505050565b600082601f83011261106d5761106c6119b6565b5b813561107d848260208601611016565b91505092915050565b60008135905061109581611b95565b92915050565b6000602082840312156110b1576110b06119c5565b5b600082013567ffffffffffffffff8111156110cf576110ce6119c0565b5b6110db84828501611058565b91505092915050565b6000602082840312156110fa576110f96119c5565b5b600061110884828501611086565b91505092915050565b60008060408385031215611128576111276119c5565b5b600061113685828601611086565b925050602083013567ffffffffffffffff811115611157576111566119c0565b5b61116385828601611058565b9150509250929050565b6000611179838361141f565b905092915050565b600061118d8383611482565b905092915050565b61119e816117c4565b82525050565b60006111af826116d9565b6111b98185611714565b9350836020820285016111cb856116b9565b8060005b8581101561120757848403895281516111e8858261116d565b94506111f3836116fa565b925060208a019950506001810190506111cf565b50829750879550505050505092915050565b6000611224826116e4565b61122e8185611725565b935083602082028501611240856116c9565b8060005b8581101561127c578484038952815161125d8582611181565b945061126883611707565b925060208a01995050600181019050611244565b50829750879550505050505092915050565b611297816117d6565b82525050565b60006112a8826116ef565b6112b28185611741565b93506112c281856020860161181b565b6112cb816119ca565b840191505092915050565b60006112e1826116ef565b6112eb8185611763565b93506112fb81856020860161181b565b80840191505092915050565b6000611314602283611752565b915061131f826119db565b604082019050919050565b6000611337603c83611752565b915061134282611a2a565b604082019050919050565b600061135a600f83611752565b915061136582611a79565b602082019050919050565b600061137d602183611752565b915061138882611aa2565b604082019050919050565b60006113a0601583611752565b91506113ab82611af1565b602082019050919050565b60006113c3601583611752565b91506113ce82611b1a565b602082019050919050565b60006113e6600083611736565b91506113f182611b43565b600082019050919050565b6000611409602583611752565b915061141482611b46565b604082019050919050565b600060808301600083015161143760008601826114bf565b506020830151848203602086015261144f828261129d565b915050604083015161146460408601826114bf565b5060608301516114776060860182611195565b508091505092915050565b600060408301600083015161149a60008601826114bf565b50602083015184820360208601526114b2828261129d565b9150508091505092915050565b6114c881611802565b82525050565b6114d781611802565b82525050565b60006114e982846112d6565b915081905092915050565b60006114ff826113d9565b9150819050919050565b6000602082019050818103600083015261152381846111a4565b905092915050565b600060208201905081810360008301526115458184611219565b905092915050565b6000602082019050611562600083018461128e565b92915050565b6000602082019050818103600083015261158181611307565b9050919050565b600060208201905081810360008301526115a18161132a565b9050919050565b600060208201905081810360008301526115c18161134d565b9050919050565b600060208201905081810360008301526115e181611370565b9050919050565b6000602082019050818103600083015261160181611393565b9050919050565b60006020820190508181036000830152611621816113b6565b9050919050565b60006020820190508181036000830152611641816113fc565b9050919050565b600060208201905061165d60008301846114ce565b92915050565b600061166d61167e565b90506116798282611880565b919050565b6000604051905090565b600067ffffffffffffffff8211156116a3576116a2611987565b5b6116ac826119ca565b9050602081019050919050565b6000819050602082019050919050565b6000819050602082019050919050565b600081519050919050565b600081519050919050565b600081519050919050565b6000602082019050919050565b6000602082019050919050565b600082825260208201905092915050565b600082825260208201905092915050565b600081905092915050565b600082825260208201905092915050565b600082825260208201905092915050565b600081905092915050565b600061177982611802565b915061178483611802565b9250827fffffffffffffffffffffffffffffffffffffffffffffffffffffffffffffffff038211156117b9576117b86118fa565b5b828201905092915050565b60006117cf826117e2565b9050919050565b60008115159050919050565b600073ffffffffffffffffffffffffffffffffffffffff82169050919050565b6000819050919050565b82818337600083830152505050565b60005b8381101561183957808201518184015260208101905061181e565b83811115611848576000848401525b50505050565b6000600282049050600182168061186657607f821691505b6020821081141561187a57611879611929565b5b50919050565b611889826119ca565b810181811067ffffffffffffffff821117156118a8576118a7611987565b5b80604052505050565b60006118bc82611802565b91507fffffffffffffffffffffffffffffffffffffffffffffffffffffffffffffffff8214156118ef576118ee6118fa565b5b600182019050919050565b7f4e487b7100000000000000000000000000000000000000000000000000000000600052601160045260246000fd5b7f4e487b7100000000000000000000000000000000000000000000000000000000600052602260045260246000fd5b7f4e487b7100000000000000000000000000000000000000000000000000000000600052603260045260246000fd5b7f4e487b7100000000000000000000000000000000000000000000000000000000600052604160045260246000fd5b600080fd5b600080fd5b600080fd5b600080fd5b6000601f19601f8301169050919050565b7f53616c646f20696e73756666696369656e746520706572206c2761637175697360008201527f746f000000000000000000000000000000000000000000000000000000000000602082015250565b7f53656920696c2070726f70726965746172696f2064656c20636f6e747261747460008201527f6f2c206e6f6e2070756f692061637175697374617265206c6962726900000000602082015250565b7f4953424e206e6f6e2076616c69646f0000000000000000000000000000000000600082015250565b7f45626f6f6b20676961272070726573656e7465206e656c20636f6e747261747460008201527f6f00000000000000000000000000000000000000000000000000000000000000602082015250565b7f45626f6f6b2067696127206163717569737461746f0000000000000000000000600082015250565b7f54726173666572696d656e746f2066616c6c69746f0000000000000000000000600082015250565b50565b7f4e6f6e2073656920696c2070726f70726965746172696f2064656c20636f6e7460008201527f726174746f000000000000000000000000000000000000000000000000000000602082015250565b611b9e81611802565b8114611ba957600080fd5b5056fea26469706673582212206a2245b16695999c6979d0e339d309267916835672b3896dd15b07aa2d88e6bf64736f6c63430008070033",
  "immutableReferences": {},
  "source": "//SPDX-License-Identifier: UNLICENSED\r\npragma solidity ^0.8.0;\r\n\r\ncontract EBookStoreFinal {\r\n  struct Ebook {\r\n    uint256 price;\r\n    string isbn;\r\n  }\r\n\r\n  struct EbookBuyed {\r\n    uint256 price;\r\n    string isbn;\r\n    uint purchaseDate;\r\n    address buyer;\r\n  }\r\n\r\n  Ebook[] private ebookNelContrattolist;\r\n  mapping(address => EbookBuyed[]) private ebookAcquistati;\r\n  mapping(string => Ebook) private ebookNelContratto;\r\n\r\n  address private seller;\r\n  uint256 private total;\r\n\r\n  constructor() {\r\n    seller = msg.sender;\r\n    addEBook(6425569239043100, \"1234567890123\");\r\n  }\r\n\r\n  function addEBook(uint256 price, string memory isbn) public {\r\n    require(isOwner(), \"Non sei il proprietario del contratto\");\r\n    require(utfStringLength(isbn) == 13, \"ISBN non valido\");\r\n    require(ebookNelContratto[isbn].price == 0, \"Ebook gia' presente nel contratto\");\r\n    Ebook memory ebook = Ebook(price, isbn);\r\n    ebookNelContratto[isbn] = ebook;\r\n    ebookNelContrattolist.push(ebook);\r\n  }\r\n\r\n  //TODO: Acquistare tramite ISBN!\r\n  function buyEBook(string memory isbn) public payable {\r\n    require(!isOwner(), \"Sei il proprietario del contratto, non puoi acquistare libri\");\r\n    require(utfStringLength(isbn) == 13, \"ISBN non valido\");\r\n    require(msg.value == ebookNelContratto[isbn].price, \"Saldo insufficiente per l'acquisto\");\r\n    EbookBuyed[] memory ebooks = ebookAcquistati[msg.sender];\r\n    bool giaAcquistato = false;\r\n    for (uint256 i = 0; i < ebooks.length; i++) {\r\n      if (bytes(isbn).length != bytes(ebooks[i].isbn).length) {\r\n        continue;\r\n      }\r\n      if (keccak256(abi.encodePacked(isbn)) == keccak256(abi.encodePacked(ebooks[i].isbn))) {\r\n        giaAcquistato = true;\r\n        break;\r\n      }\r\n    }\r\n    require(!giaAcquistato, \"Ebook gia' acquistato\");\r\n    payable(seller).transfer(msg.value);\r\n    EbookBuyed memory ebookcomprato = EbookBuyed(msg.value, isbn, block.timestamp, msg.sender);\r\n    ebookAcquistati[msg.sender].push(ebookcomprato);\r\n  }\r\n\r\n  function getPurchasedEBooks() public view returns (EbookBuyed[] memory) {\r\n    return ebookAcquistati[msg.sender];\r\n  }\r\n\r\n  function getAllEBooks() public view returns (Ebook[] memory) {\r\n    return ebookNelContrattolist;\r\n  }\r\n\r\n  function isOwner() public view returns (bool) {\r\n    return msg.sender == seller;\r\n  }\r\n\r\n  function withdraw(uint amount) public{\r\n    require(isOwner(), \"Non sei il proprietario del contratto\");\r\n    (bool success,) = seller.call{value : amount}(\"\");\r\n    require(success, \"Trasferimento fallito\");\r\n  }\r\n\r\n  function utfStringLength(string memory str) pure private returns (uint length) {\r\n    uint i = 0;\r\n    bytes memory string_rep = bytes(str);\r\n\r\n    while (i < string_rep.length)\r\n    {\r\n      if (string_rep[i] >> 7 == 0)\r\n        i += 1;\r\n      else if (string_rep[i] >> 5 == bytes1(uint8(0x6)))\r\n        i += 2;\r\n      else if (string_rep[i] >> 4 == bytes1(uint8(0xE)))\r\n        i += 3;\r\n      else if (string_rep[i] >> 3 == bytes1(uint8(0x1E)))\r\n        i += 4;\r\n      else\r\n        i += 1;\r\n\r\n      length++;\r\n    }\r\n  }\r\n\r\n  function getContractBalance() public view returns(uint){\r\n    require(isOwner(), \"Non sei il proprietario del contratto\");\r\n    return address(this).balance;\r\n  }\r\n\r\n}\r\n",
  "sourcePath": "C:\\Users\\vinciraia99\\IdeaProjects\\bookproject\\Blockchain\\contracts\\EbookStoreFinal.sol",
  "compiler": {
    "name": "solc",
    "version": "0.8.7+commit.e28d00a7.Emscripten.clang"
  },
  "schemaVersion": "3.4.12",
  "updatedAt": "2023-02-20T00:20:37.573Z",
  "networkType": "ethereum",
  "devdoc": {
    "kind": "dev",
    "methods": {},
    "version": 1
  },
  "userdoc": {
    "kind": "user",
    "methods": {},
    "version": 1
  }
}