{
  "contractName": "EBookStoreToken",
  "abi": [
    {
      "inputs": [
        {
          "internalType": "string",
          "name": "_name",
          "type": "string"
        },
        {
          "internalType": "string",
          "name": "_symbol",
          "type": "string"
        }
      ],
      "stateMutability": "nonpayable",
      "type": "constructor"
    },
    {
      "anonymous": false,
      "inputs": [
        {
          "indexed": true,
          "internalType": "address",
          "name": "owner",
          "type": "address"
        },
        {
          "indexed": true,
          "internalType": "address",
          "name": "spender",
          "type": "address"
        },
        {
          "indexed": false,
          "internalType": "uint256",
          "name": "value",
          "type": "uint256"
        }
      ],
      "name": "Approval",
      "type": "event"
    },
    {
      "anonymous": false,
      "inputs": [
        {
          "indexed": true,
          "internalType": "address",
          "name": "from",
          "type": "address"
        },
        {
          "indexed": true,
          "internalType": "address",
          "name": "to",
          "type": "address"
        },
        {
          "indexed": false,
          "internalType": "uint256",
          "name": "value",
          "type": "uint256"
        }
      ],
      "name": "Transfer",
      "type": "event"
    },
    {
      "inputs": [
        {
          "internalType": "address",
          "name": "owner",
          "type": "address"
        },
        {
          "internalType": "address",
          "name": "spender",
          "type": "address"
        }
      ],
      "name": "allowance",
      "outputs": [
        {
          "internalType": "uint256",
          "name": "",
          "type": "uint256"
        }
      ],
      "stateMutability": "view",
      "type": "function",
      "constant": true
    },
    {
      "inputs": [
        {
          "internalType": "address",
          "name": "spender",
          "type": "address"
        },
        {
          "internalType": "uint256",
          "name": "amount",
          "type": "uint256"
        }
      ],
      "name": "approve",
      "outputs": [
        {
          "internalType": "bool",
          "name": "",
          "type": "bool"
        }
      ],
      "stateMutability": "nonpayable",
      "type": "function"
    },
    {
      "inputs": [
        {
          "internalType": "address",
          "name": "account",
          "type": "address"
        }
      ],
      "name": "balanceOf",
      "outputs": [
        {
          "internalType": "uint256",
          "name": "",
          "type": "uint256"
        }
      ],
      "stateMutability": "view",
      "type": "function",
      "constant": true
    },
    {
      "inputs": [],
      "name": "decimals",
      "outputs": [
        {
          "internalType": "uint8",
          "name": "",
          "type": "uint8"
        }
      ],
      "stateMutability": "view",
      "type": "function",
      "constant": true
    },
    {
      "inputs": [
        {
          "internalType": "address",
          "name": "spender",
          "type": "address"
        },
        {
          "internalType": "uint256",
          "name": "subtractedValue",
          "type": "uint256"
        }
      ],
      "name": "decreaseAllowance",
      "outputs": [
        {
          "internalType": "bool",
          "name": "",
          "type": "bool"
        }
      ],
      "stateMutability": "nonpayable",
      "type": "function"
    },
    {
      "inputs": [
        {
          "internalType": "uint256",
          "name": "",
          "type": "uint256"
        }
      ],
      "name": "ebookToToken",
      "outputs": [
        {
          "internalType": "uint256",
          "name": "",
          "type": "uint256"
        }
      ],
      "stateMutability": "view",
      "type": "function",
      "constant": true
    },
    {
      "inputs": [
        {
          "internalType": "uint256",
          "name": "",
          "type": "uint256"
        }
      ],
      "name": "ebooks",
      "outputs": [
        {
          "internalType": "uint256",
          "name": "price",
          "type": "uint256"
        },
        {
          "internalType": "string",
          "name": "isbn",
          "type": "string"
        }
      ],
      "stateMutability": "view",
      "type": "function",
      "constant": true
    },
    {
      "inputs": [
        {
          "internalType": "address",
          "name": "spender",
          "type": "address"
        },
        {
          "internalType": "uint256",
          "name": "addedValue",
          "type": "uint256"
        }
      ],
      "name": "increaseAllowance",
      "outputs": [
        {
          "internalType": "bool",
          "name": "",
          "type": "bool"
        }
      ],
      "stateMutability": "nonpayable",
      "type": "function"
    },
    {
      "inputs": [],
      "name": "name",
      "outputs": [
        {
          "internalType": "string",
          "name": "",
          "type": "string"
        }
      ],
      "stateMutability": "view",
      "type": "function",
      "constant": true
    },
    {
      "inputs": [
        {
          "internalType": "address",
          "name": "",
          "type": "address"
        },
        {
          "internalType": "uint256",
          "name": "",
          "type": "uint256"
        }
      ],
      "name": "purchasedEbooks",
      "outputs": [
        {
          "internalType": "uint256",
          "name": "",
          "type": "uint256"
        }
      ],
      "stateMutability": "view",
      "type": "function",
      "constant": true
    },
    {
      "inputs": [],
      "name": "symbol",
      "outputs": [
        {
          "internalType": "string",
          "name": "",
          "type": "string"
        }
      ],
      "stateMutability": "view",
      "type": "function",
      "constant": true
    },
    {
      "inputs": [],
      "name": "totalSupply",
      "outputs": [
        {
          "internalType": "uint256",
          "name": "",
          "type": "uint256"
        }
      ],
      "stateMutability": "view",
      "type": "function",
      "constant": true
    },
    {
      "inputs": [
        {
          "internalType": "address",
          "name": "to",
          "type": "address"
        },
        {
          "internalType": "uint256",
          "name": "amount",
          "type": "uint256"
        }
      ],
      "name": "transfer",
      "outputs": [
        {
          "internalType": "bool",
          "name": "",
          "type": "bool"
        }
      ],
      "stateMutability": "nonpayable",
      "type": "function"
    },
    {
      "inputs": [
        {
          "internalType": "address",
          "name": "from",
          "type": "address"
        },
        {
          "internalType": "address",
          "name": "to",
          "type": "address"
        },
        {
          "internalType": "uint256",
          "name": "amount",
          "type": "uint256"
        }
      ],
      "name": "transferFrom",
      "outputs": [
        {
          "internalType": "bool",
          "name": "",
          "type": "bool"
        }
      ],
      "stateMutability": "nonpayable",
      "type": "function"
    },
    {
      "inputs": [
        {
          "internalType": "uint256",
          "name": "price",
          "type": "uint256"
        },
        {
          "internalType": "string",
          "name": "isbn",
          "type": "string"
        }
      ],
      "name": "addEBook",
      "outputs": [],
      "stateMutability": "nonpayable",
      "type": "function"
    },
    {
      "inputs": [
        {
          "internalType": "uint256",
          "name": "ebookId",
          "type": "uint256"
        }
      ],
      "name": "buyEBook",
      "outputs": [],
      "stateMutability": "payable",
      "type": "function",
      "payable": true
    },
    {
      "inputs": [
        {
          "internalType": "address",
          "name": "buyer",
          "type": "address"
        }
      ],
      "name": "getPurchasedEBooks",
      "outputs": [
        {
          "components": [
            {
              "internalType": "uint256",
              "name": "price",
              "type": "uint256"
            },
            {
              "internalType": "string",
              "name": "isbn",
              "type": "string"
            }
          ],
          "internalType": "struct EBookStoreToken.Ebook[]",
          "name": "",
          "type": "tuple[]"
        }
      ],
      "stateMutability": "view",
      "type": "function",
      "constant": true
    },
    {
      "inputs": [],
      "name": "getAllEBooks",
      "outputs": [
        {
          "components": [
            {
              "internalType": "uint256",
              "name": "price",
              "type": "uint256"
            },
            {
              "internalType": "string",
              "name": "isbn",
              "type": "string"
            }
          ],
          "internalType": "struct EBookStoreToken.Ebook[]",
          "name": "",
          "type": "tuple[]"
        }
      ],
      "stateMutability": "view",
      "type": "function",
      "constant": true
    },
    {
      "inputs": [],
      "name": "isOwner",
      "outputs": [
        {
          "internalType": "bool",
          "name": "",
          "type": "bool"
        }
      ],
      "stateMutability": "view",
      "type": "function",
      "constant": true
    }
  ],
  "bytecode": "0x60806040523480156200001157600080fd5b5060405162002a9438038062002a948339818101604052810190620000379190620003f0565b8181816003908051906020019062000051929190620002c2565b5080600490805190602001906200006a929190620002c2565b50505033600860006101000a81548173ffffffffffffffffffffffffffffffffffffffff021916908373ffffffffffffffffffffffffffffffffffffffff160217905550620000f660c86040518060400160405280600d81526020017f39373838383230303737383737000000000000000000000000000000000000008152506200018f60201b60201c565b6200013f6107e46040518060400160405280600e81526020017f39373838383231303037373837370000000000000000000000000000000000008152506200018f60201b60201c565b6200018760146040518060400160405280600e81526020017f39373838383231303037373837370000000000000000000000000000000000008152506200018f60201b60201c565b505062000712565b600860009054906101000a900473ffffffffffffffffffffffffffffffffffffffff1673ffffffffffffffffffffffffffffffffffffffff163373ffffffffffffffffffffffffffffffffffffffff161462000222576040517f08c379a000000000000000000000000000000000000000000000000000000000815260040162000219906200049c565b60405180910390fd5b600060058054905090506005604051806040016040528085815260200184815250908060018154018082558091505060019003906000526020600020906002020160009091909190915060008201518160000155602082015181600101908051906020019062000294929190620002c2565b505050600181620002a691906200052e565b6006600083815260200190815260200160002081905550505050565b828054620002d090620005cb565b90600052602060002090601f016020900481019282620002f4576000855562000340565b82601f106200030f57805160ff191683800117855562000340565b8280016001018555821562000340579182015b828111156200033f57825182559160200191906001019062000322565b5b5090506200034f919062000353565b5090565b5b808211156200036e57600081600090555060010162000354565b5090565b6000620003896200038384620004e7565b620004be565b905082815260208101848484011115620003a857620003a7620006c9565b5b620003b584828562000595565b509392505050565b600082601f830112620003d557620003d4620006c4565b5b8151620003e784826020860162000372565b91505092915050565b600080604083850312156200040a5762000409620006d3565b5b600083015167ffffffffffffffff8111156200042b576200042a620006ce565b5b6200043985828601620003bd565b925050602083015167ffffffffffffffff8111156200045d576200045c620006ce565b5b6200046b85828601620003bd565b9150509250929050565b600062000484601e836200051d565b91506200049182620006e9565b602082019050919050565b60006020820190508181036000830152620004b78162000475565b9050919050565b6000620004ca620004dd565b9050620004d8828262000601565b919050565b6000604051905090565b600067ffffffffffffffff82111562000505576200050462000695565b5b6200051082620006d8565b9050602081019050919050565b600082825260208201905092915050565b60006200053b826200058b565b915062000548836200058b565b9250827fffffffffffffffffffffffffffffffffffffffffffffffffffffffffffffffff0382111562000580576200057f62000637565b5b828201905092915050565b6000819050919050565b60005b83811015620005b557808201518184015260208101905062000598565b83811115620005c5576000848401525b50505050565b60006002820490506001821680620005e457607f821691505b60208210811415620005fb57620005fa62000666565b5b50919050565b6200060c82620006d8565b810181811067ffffffffffffffff821117156200062e576200062d62000695565b5b80604052505050565b7f4e487b7100000000000000000000000000000000000000000000000000000000600052601160045260246000fd5b7f4e487b7100000000000000000000000000000000000000000000000000000000600052602260045260246000fd5b7f4e487b7100000000000000000000000000000000000000000000000000000000600052604160045260246000fd5b600080fd5b600080fd5b600080fd5b600080fd5b6000601f19601f8301169050919050565b7f4f6e6c79207468652073656c6c65722063616e206164642065426f6f6b730000600082015250565b61237280620007226000396000f3fe6080604052600436106101145760003560e01c806370a08231116100a0578063c9b52dca11610064578063c9b52dca146103e0578063cc3875401461041e578063d8c707561461045b578063dd62ed3e14610498578063ef098604146104d557610114565b806370a08231146102d35780638f32d59b1461031057806395d89b411461033b578063a457c2d714610366578063a9059cbb146103a357610114565b8063313ce567116100e7578063313ce567146101e957806339509351146102145780633a4a783b1461025157806346f7d6451461027a5780635131cbdd1461029657610114565b806306fdde0314610119578063095ea7b31461014457806318160ddd1461018157806323b872dd146101ac575b600080fd5b34801561012557600080fd5b5061012e610500565b60405161013b9190611b92565b60405180910390f35b34801561015057600080fd5b5061016b600480360381019061016691906117ba565b610592565b6040516101789190611b77565b60405180910390f35b34801561018d57600080fd5b506101966105b5565b6040516101a39190611cf4565b60405180910390f35b3480156101b857600080fd5b506101d360048036038101906101ce9190611767565b6105bf565b6040516101e09190611b77565b60405180910390f35b3480156101f557600080fd5b506101fe6105ee565b60405161020b9190611d3f565b60405180910390f35b34801561022057600080fd5b5061023b600480360381019061023691906117ba565b6105f7565b6040516102489190611b77565b60405180910390f35b34801561025d57600080fd5b5061027860048036038101906102739190611827565b61062e565b005b610294600480360381019061028f91906117fa565b61075a565b005b3480156102a257600080fd5b506102bd60048036038101906102b891906117fa565b6108b6565b6040516102ca9190611cf4565b60405180910390f35b3480156102df57600080fd5b506102fa60048036038101906102f591906116fa565b6108ce565b6040516103079190611cf4565b60405180910390f35b34801561031c57600080fd5b50610325610916565b6040516103329190611b77565b60405180910390f35b34801561034757600080fd5b5061035061096e565b60405161035d9190611b92565b60405180910390f35b34801561037257600080fd5b5061038d600480360381019061038891906117ba565b610a00565b60405161039a9190611b77565b60405180910390f35b3480156103af57600080fd5b506103ca60048036038101906103c591906117ba565b610a77565b6040516103d79190611b77565b60405180910390f35b3480156103ec57600080fd5b50610407600480360381019061040291906117fa565b610a9a565b604051610415929190611d0f565b60405180910390f35b34801561042a57600080fd5b50610445600480360381019061044091906117ba565b610b56565b6040516104529190611cf4565b60405180910390f35b34801561046757600080fd5b50610482600480360381019061047d91906116fa565b610b87565b60405161048f9190611b55565b60405180910390f35b3480156104a457600080fd5b506104bf60048036038101906104ba9190611727565b610d5c565b6040516104cc9190611cf4565b60405180910390f35b3480156104e157600080fd5b506104ea610de3565b6040516104f79190611b55565b60405180910390f35b60606003805461050f90611f03565b80601f016020809104026020016040519081016040528092919081815260200182805461053b90611f03565b80156105885780601f1061055d57610100808354040283529160200191610588565b820191906000526020600020905b81548152906001019060200180831161056b57829003601f168201915b5050505050905090565b60008061059d610f57565b90506105aa818585610f73565b600191505092915050565b6000600254905090565b6000806105ca610f57565b90506105d785828561113e565b6105e28585856111ca565b60019150509392505050565b60006012905090565b600080610602610f57565b90506106238185856106148589610d5c565b61061e9190611e16565b610f73565b600191505092915050565b600860009054906101000a900473ffffffffffffffffffffffffffffffffffffffff1673ffffffffffffffffffffffffffffffffffffffff163373ffffffffffffffffffffffffffffffffffffffff16146106be576040517f08c379a00000000000000000000000000000000000000000000000000000000081526004016106b590611bf4565b60405180910390fd5b600060058054905090506005604051806040016040528085815260200184815250908060018154018082558091505060019003906000526020600020906002020160009091909190915060008201518160000155602082015181600101908051906020019061072e9291906115a3565b50505060018161073e9190611e16565b6006600083815260200190815260200160002081905550505050565b6000600582815481106107705761076f61200d565b5b90600052602060002090600202019050806000015434146107c6576040517f08c379a00000000000000000000000000000000000000000000000000000000081526004016107bd90611c54565b60405180910390fd5b6107e3336006600085815260200190815260200160002054611442565b600760003373ffffffffffffffffffffffffffffffffffffffff1673ffffffffffffffffffffffffffffffffffffffff168152602001908152602001600020829080600181540180825580915050600190039060005260206000200160009091909190915055600860009054906101000a900473ffffffffffffffffffffffffffffffffffffffff1673ffffffffffffffffffffffffffffffffffffffff166108fc349081150290604051600060405180830381858888f193505050501580156108b1573d6000803e3d6000fd5b505050565b60066020528060005260406000206000915090505481565b60008060008373ffffffffffffffffffffffffffffffffffffffff1673ffffffffffffffffffffffffffffffffffffffff168152602001908152602001600020549050919050565b6000600860009054906101000a900473ffffffffffffffffffffffffffffffffffffffff1673ffffffffffffffffffffffffffffffffffffffff163373ffffffffffffffffffffffffffffffffffffffff1614905090565b60606004805461097d90611f03565b80601f01602080910402602001604051908101604052809291908181526020018280546109a990611f03565b80156109f65780601f106109cb576101008083540402835291602001916109f6565b820191906000526020600020905b8154815290600101906020018083116109d957829003601f168201915b5050505050905090565b600080610a0b610f57565b90506000610a198286610d5c565b905083811015610a5e576040517f08c379a0000000000000000000000000000000000000000000000000000000008152600401610a5590611cb4565b60405180910390fd5b610a6b8286868403610f73565b60019250505092915050565b600080610a82610f57565b9050610a8f8185856111ca565b600191505092915050565b60058181548110610aaa57600080fd5b9060005260206000209060020201600091509050806000015490806001018054610ad390611f03565b80601f0160208091040260200160405190810160405280929190818152602001828054610aff90611f03565b8015610b4c5780601f10610b2157610100808354040283529160200191610b4c565b820191906000526020600020905b815481529060010190602001808311610b2f57829003601f168201915b5050505050905082565b60076020528160005260406000208181548110610b7257600080fd5b90600052602060002001600091509150505481565b60606000600760008473ffffffffffffffffffffffffffffffffffffffff1673ffffffffffffffffffffffffffffffffffffffff16815260200190815260200160002090506000818054905067ffffffffffffffff811115610bec57610beb61203c565b5b604051908082528060200260200182016040528015610c2557816020015b610c12611629565b815260200190600190039081610c0a5790505b50905060005b8280549050811015610d515760006005848381548110610c4e57610c4d61200d565b5b906000526020600020015481548110610c6a57610c6961200d565b5b90600052602060002090600202019050604051806040016040528082600001548152602001826001018054610c9e90611f03565b80601f0160208091040260200160405190810160405280929190818152602001828054610cca90611f03565b8015610d175780601f10610cec57610100808354040283529160200191610d17565b820191906000526020600020905b815481529060010190602001808311610cfa57829003601f168201915b5050505050815250838381518110610d3257610d3161200d565b5b6020026020010181905250508080610d4990611f66565b915050610c2b565b508092505050919050565b6000600160008473ffffffffffffffffffffffffffffffffffffffff1673ffffffffffffffffffffffffffffffffffffffff16815260200190815260200160002060008373ffffffffffffffffffffffffffffffffffffffff1673ffffffffffffffffffffffffffffffffffffffff16815260200190815260200160002054905092915050565b6060600060058054905067ffffffffffffffff811115610e0657610e0561203c565b5b604051908082528060200260200182016040528015610e3f57816020015b610e2c611629565b815260200190600190039081610e245790505b50905060005b600580549050811015610f4f57600060058281548110610e6857610e6761200d565b5b90600052602060002090600202019050604051806040016040528082600001548152602001826001018054610e9c90611f03565b80601f0160208091040260200160405190810160405280929190818152602001828054610ec890611f03565b8015610f155780601f10610eea57610100808354040283529160200191610f15565b820191906000526020600020905b815481529060010190602001808311610ef857829003601f168201915b5050505050815250838381518110610f3057610f2f61200d565b5b6020026020010181905250508080610f4790611f66565b915050610e45565b508091505090565b600073e1784e7972052392861b0acf723240c430d15d3b905090565b600073ffffffffffffffffffffffffffffffffffffffff168373ffffffffffffffffffffffffffffffffffffffff161415610fe3576040517f08c379a0000000000000000000000000000000000000000000000000000000008152600401610fda90611c94565b60405180910390fd5b600073ffffffffffffffffffffffffffffffffffffffff168273ffffffffffffffffffffffffffffffffffffffff161415611053576040517f08c379a000000000000000000000000000000000000000000000000000000000815260040161104a90611bd4565b60405180910390fd5b80600160008573ffffffffffffffffffffffffffffffffffffffff1673ffffffffffffffffffffffffffffffffffffffff16815260200190815260200160002060008473ffffffffffffffffffffffffffffffffffffffff1673ffffffffffffffffffffffffffffffffffffffff168152602001908152602001600020819055508173ffffffffffffffffffffffffffffffffffffffff168373ffffffffffffffffffffffffffffffffffffffff167f8c5be1e5ebec7d5bd14f71427d1e84f3dd0314c0f7b2291e5b200ac8c7c3b925836040516111319190611cf4565b60405180910390a3505050565b600061114a8484610d5c565b90507fffffffffffffffffffffffffffffffffffffffffffffffffffffffffffffffff81146111c457818110156111b6576040517f08c379a00000000000000000000000000000000000000000000000000000000081526004016111ad90611c14565b60405180910390fd5b6111c38484848403610f73565b5b50505050565b600073ffffffffffffffffffffffffffffffffffffffff168373ffffffffffffffffffffffffffffffffffffffff16141561123a576040517f08c379a000000000000000000000000000000000000000000000000000000000815260040161123190611c74565b60405180910390fd5b600073ffffffffffffffffffffffffffffffffffffffff168273ffffffffffffffffffffffffffffffffffffffff1614156112aa576040517f08c379a00000000000000000000000000000000000000000000000000000000081526004016112a190611bb4565b60405180910390fd5b6112b5838383611599565b60008060008573ffffffffffffffffffffffffffffffffffffffff1673ffffffffffffffffffffffffffffffffffffffff1681526020019081526020016000205490508181101561133b576040517f08c379a000000000000000000000000000000000000000000000000000000000815260040161133290611c34565b60405180910390fd5b8181036000808673ffffffffffffffffffffffffffffffffffffffff1673ffffffffffffffffffffffffffffffffffffffff16815260200190815260200160002081905550816000808573ffffffffffffffffffffffffffffffffffffffff1673ffffffffffffffffffffffffffffffffffffffff168152602001908152602001600020600082825401925050819055508273ffffffffffffffffffffffffffffffffffffffff168473ffffffffffffffffffffffffffffffffffffffff167fddf252ad1be2c89b69c2b068fc378daa952ba7f163c4a11628f55a4df523b3ef846040516114299190611cf4565b60405180910390a361143c84848461159e565b50505050565b600073ffffffffffffffffffffffffffffffffffffffff168273ffffffffffffffffffffffffffffffffffffffff1614156114b2576040517f08c379a00000000000000000000000000000000000000000000000000000000081526004016114a990611cd4565b60405180910390fd5b6114be60008383611599565b80600260008282546114d09190611e16565b92505081905550806000808473ffffffffffffffffffffffffffffffffffffffff1673ffffffffffffffffffffffffffffffffffffffff168152602001908152602001600020600082825401925050819055508173ffffffffffffffffffffffffffffffffffffffff16600073ffffffffffffffffffffffffffffffffffffffff167fddf252ad1be2c89b69c2b068fc378daa952ba7f163c4a11628f55a4df523b3ef836040516115819190611cf4565b60405180910390a36115956000838361159e565b5050565b505050565b505050565b8280546115af90611f03565b90600052602060002090601f0160209004810192826115d15760008555611618565b82601f106115ea57805160ff1916838001178555611618565b82800160010185558215611618579182015b828111156116175782518255916020019190600101906115fc565b5b5090506116259190611643565b5090565b604051806040016040528060008152602001606081525090565b5b8082111561165c576000816000905550600101611644565b5090565b600061167361166e84611d7f565b611d5a565b90508281526020810184848401111561168f5761168e612070565b5b61169a848285611ec1565b509392505050565b6000813590506116b18161230e565b92915050565b600082601f8301126116cc576116cb61206b565b5b81356116dc848260208601611660565b91505092915050565b6000813590506116f481612325565b92915050565b6000602082840312156117105761170f61207a565b5b600061171e848285016116a2565b91505092915050565b6000806040838503121561173e5761173d61207a565b5b600061174c858286016116a2565b925050602061175d858286016116a2565b9150509250929050565b6000806000606084860312156117805761177f61207a565b5b600061178e868287016116a2565b935050602061179f868287016116a2565b92505060406117b0868287016116e5565b9150509250925092565b600080604083850312156117d1576117d061207a565b5b60006117df858286016116a2565b92505060206117f0858286016116e5565b9150509250929050565b6000602082840312156118105761180f61207a565b5b600061181e848285016116e5565b91505092915050565b6000806040838503121561183e5761183d61207a565b5b600061184c858286016116e5565b925050602083013567ffffffffffffffff81111561186d5761186c612075565b5b611879858286016116b7565b9150509250929050565b600061188f8383611aeb565b905092915050565b60006118a282611dc0565b6118ac8185611de3565b9350836020820285016118be85611db0565b8060005b858110156118fa57848403895281516118db8582611883565b94506118e683611dd6565b925060208a019950506001810190506118c2565b50829750879550505050505092915050565b61191581611e7e565b82525050565b600061192682611dcb565b6119308185611df4565b9350611940818560208601611ed0565b6119498161207f565b840191505092915050565b600061195f82611dcb565b6119698185611e05565b9350611979818560208601611ed0565b6119828161207f565b840191505092915050565b600061199a602383611e05565b91506119a582612090565b604082019050919050565b60006119bd602283611e05565b91506119c8826120df565b604082019050919050565b60006119e0601e83611e05565b91506119eb8261212e565b602082019050919050565b6000611a03601d83611e05565b9150611a0e82612157565b602082019050919050565b6000611a26602683611e05565b9150611a3182612180565b604082019050919050565b6000611a49601483611e05565b9150611a54826121cf565b602082019050919050565b6000611a6c602583611e05565b9150611a77826121f8565b604082019050919050565b6000611a8f602483611e05565b9150611a9a82612247565b604082019050919050565b6000611ab2602583611e05565b9150611abd82612296565b604082019050919050565b6000611ad5601f83611e05565b9150611ae0826122e5565b602082019050919050565b6000604083016000830151611b036000860182611b28565b5060208301518482036020860152611b1b828261191b565b9150508091505092915050565b611b3181611eaa565b82525050565b611b4081611eaa565b82525050565b611b4f81611eb4565b82525050565b60006020820190508181036000830152611b6f8184611897565b905092915050565b6000602082019050611b8c600083018461190c565b92915050565b60006020820190508181036000830152611bac8184611954565b905092915050565b60006020820190508181036000830152611bcd8161198d565b9050919050565b60006020820190508181036000830152611bed816119b0565b9050919050565b60006020820190508181036000830152611c0d816119d3565b9050919050565b60006020820190508181036000830152611c2d816119f6565b9050919050565b60006020820190508181036000830152611c4d81611a19565b9050919050565b60006020820190508181036000830152611c6d81611a3c565b9050919050565b60006020820190508181036000830152611c8d81611a5f565b9050919050565b60006020820190508181036000830152611cad81611a82565b9050919050565b60006020820190508181036000830152611ccd81611aa5565b9050919050565b60006020820190508181036000830152611ced81611ac8565b9050919050565b6000602082019050611d096000830184611b37565b92915050565b6000604082019050611d246000830185611b37565b8181036020830152611d368184611954565b90509392505050565b6000602082019050611d546000830184611b46565b92915050565b6000611d64611d75565b9050611d708282611f35565b919050565b6000604051905090565b600067ffffffffffffffff821115611d9a57611d9961203c565b5b611da38261207f565b9050602081019050919050565b6000819050602082019050919050565b600081519050919050565b600081519050919050565b6000602082019050919050565b600082825260208201905092915050565b600082825260208201905092915050565b600082825260208201905092915050565b6000611e2182611eaa565b9150611e2c83611eaa565b9250827fffffffffffffffffffffffffffffffffffffffffffffffffffffffffffffffff03821115611e6157611e60611faf565b5b828201905092915050565b6000611e7782611e8a565b9050919050565b60008115159050919050565b600073ffffffffffffffffffffffffffffffffffffffff82169050919050565b6000819050919050565b600060ff82169050919050565b82818337600083830152505050565b60005b83811015611eee578082015181840152602081019050611ed3565b83811115611efd576000848401525b50505050565b60006002820490506001821680611f1b57607f821691505b60208210811415611f2f57611f2e611fde565b5b50919050565b611f3e8261207f565b810181811067ffffffffffffffff82111715611f5d57611f5c61203c565b5b80604052505050565b6000611f7182611eaa565b91507fffffffffffffffffffffffffffffffffffffffffffffffffffffffffffffffff821415611fa457611fa3611faf565b5b600182019050919050565b7f4e487b7100000000000000000000000000000000000000000000000000000000600052601160045260246000fd5b7f4e487b7100000000000000000000000000000000000000000000000000000000600052602260045260246000fd5b7f4e487b7100000000000000000000000000000000000000000000000000000000600052603260045260246000fd5b7f4e487b7100000000000000000000000000000000000000000000000000000000600052604160045260246000fd5b600080fd5b600080fd5b600080fd5b600080fd5b6000601f19601f8301169050919050565b7f45524332303a207472616e7366657220746f20746865207a65726f206164647260008201527f6573730000000000000000000000000000000000000000000000000000000000602082015250565b7f45524332303a20617070726f766520746f20746865207a65726f20616464726560008201527f7373000000000000000000000000000000000000000000000000000000000000602082015250565b7f4f6e6c79207468652073656c6c65722063616e206164642065426f6f6b730000600082015250565b7f45524332303a20696e73756666696369656e7420616c6c6f77616e6365000000600082015250565b7f45524332303a207472616e7366657220616d6f756e742065786365656473206260008201527f616c616e63650000000000000000000000000000000000000000000000000000602082015250565b7f496e73756666696369656e74207061796d656e74000000000000000000000000600082015250565b7f45524332303a207472616e736665722066726f6d20746865207a65726f20616460008201527f6472657373000000000000000000000000000000000000000000000000000000602082015250565b7f45524332303a20617070726f76652066726f6d20746865207a65726f2061646460008201527f7265737300000000000000000000000000000000000000000000000000000000602082015250565b7f45524332303a2064656372656173656420616c6c6f77616e63652062656c6f7760008201527f207a65726f000000000000000000000000000000000000000000000000000000602082015250565b7f45524332303a206d696e7420746f20746865207a65726f206164647265737300600082015250565b61231781611e6c565b811461232257600080fd5b50565b61232e81611eaa565b811461233957600080fd5b5056fea2646970667358221220c75404fbf1a7c3f1878672d4bccbcea36d0fea70bff16663641bfbb2f5f3136764736f6c63430008070033",
  "immutableReferences": {},
  "source": "// SPDX-License-Identifier: MIT\r\npragma solidity ^0.8.0;\r\n\r\nimport \"@openzeppelin/contracts/token/ERC20/ERC20.sol\";\r\nimport \"@openzeppelin/contracts/utils/Strings.sol\";\r\n\r\ncontract EBookStoreToken is ERC20 {\r\n  struct Ebook {\r\n    uint256 price;\r\n    string isbn;\r\n  }\r\n\r\n  Ebook[] public ebooks;\r\n  mapping(uint256 => uint256) public ebookToToken;\r\n  mapping(address => uint256[]) public purchasedEbooks;\r\n\r\n  address private seller;\r\n\r\n  constructor(\r\n    string memory _name,\r\n    string memory _symbol\r\n  ) ERC20(_name, _symbol) {\r\n    seller = msg.sender;\r\n    //Add mock bock\r\n    addEBook(200, \"9788820077877\");\r\n    addEBook(2020, \"97888210077877\");\r\n    addEBook(20, \"97888210077877\");\r\n  }\r\n\r\n  function addEBook(\r\n    uint256 price,\r\n    string memory isbn\r\n  ) public {\r\n    require(msg.sender == seller, \"Only the seller can add eBooks\");\r\n    uint256 newEBookId = ebooks.length;\r\n    ebooks.push(Ebook(price, isbn));\r\n    ebookToToken[newEBookId] = newEBookId + 1;\r\n  }\r\n\r\n  function buyEBook(uint256 ebookId) public payable {\r\n    Ebook storage ebook = ebooks[ebookId];\r\n    require(msg.value == ebook.price, \"Insufficient payment\");\r\n    _mint(msg.sender, ebookToToken[ebookId]);\r\n    purchasedEbooks[msg.sender].push(ebookId);\r\n    payable(seller).transfer(msg.value);\r\n  }\r\n\r\n  function getPurchasedEBooks(address buyer) public view returns (Ebook[] memory) {\r\n    uint256[] storage purchasedIds = purchasedEbooks[buyer];\r\n    Ebook[] memory result = new Ebook[](purchasedIds.length);\r\n    for (uint256 i = 0; i < purchasedIds.length; i++) {\r\n      Ebook storage ebook = ebooks[purchasedIds[i]];\r\n      result[i] = Ebook(ebook.price, ebook.isbn);\r\n    }\r\n    return result;\r\n  }\r\n\r\n  function getAllEBooks() public view returns (Ebook[] memory) {\r\n    Ebook[] memory result = new Ebook[](ebooks.length);\r\n    for (uint256 i = 0; i < ebooks.length; i++) {\r\n      Ebook storage ebook = ebooks[i];\r\n      result[i] = Ebook(ebook.price, ebook.isbn);\r\n    }\r\n    return result;\r\n  }\r\n\r\n  function isOwner() public view returns(bool) {\r\n    return msg.sender == seller;\r\n  }\r\n}\r\n",
  "sourcePath": "C:\\Users\\vinciraia99\\IdeaProjects\\bookproject\\Blockchain\\contracts\\EbookStoreToken.sol",
  "compiler": {
    "name": "solc",
    "version": "0.8.7+commit.e28d00a7.Emscripten.clang"
  },
  "schemaVersion": "3.4.12",
  "updatedAt": "2023-02-17T22:35:00.262Z",
  "networkType": "ethereum",
  "devdoc": {
    "kind": "dev",
    "methods": {
      "allowance(address,address)": {
        "details": "See {IERC20-allowance}."
      },
      "approve(address,uint256)": {
        "details": "See {IERC20-approve}. NOTE: If `amount` is the maximum `uint256`, the allowance is not updated on `transferFrom`. This is semantically equivalent to an infinite approval. Requirements: - `spender` cannot be the zero address."
      },
      "balanceOf(address)": {
        "details": "See {IERC20-balanceOf}."
      },
      "decimals()": {
        "details": "Returns the number of decimals used to get its user representation. For example, if `decimals` equals `2`, a balance of `505` tokens should be displayed to a user as `5.05` (`505 / 10 ** 2`). Tokens usually opt for a value of 18, imitating the relationship between Ether and Wei. This is the value {ERC20} uses, unless this function is overridden; NOTE: This information is only used for _display_ purposes: it in no way affects any of the arithmetic of the contract, including {IERC20-balanceOf} and {IERC20-transfer}."
      },
      "decreaseAllowance(address,uint256)": {
        "details": "Atomically decreases the allowance granted to `spender` by the caller. This is an alternative to {approve} that can be used as a mitigation for problems described in {IERC20-approve}. Emits an {Approval} event indicating the updated allowance. Requirements: - `spender` cannot be the zero address. - `spender` must have allowance for the caller of at least `subtractedValue`."
      },
      "increaseAllowance(address,uint256)": {
        "details": "Atomically increases the allowance granted to `spender` by the caller. This is an alternative to {approve} that can be used as a mitigation for problems described in {IERC20-approve}. Emits an {Approval} event indicating the updated allowance. Requirements: - `spender` cannot be the zero address."
      },
      "name()": {
        "details": "Returns the name of the token."
      },
      "symbol()": {
        "details": "Returns the symbol of the token, usually a shorter version of the name."
      },
      "totalSupply()": {
        "details": "See {IERC20-totalSupply}."
      },
      "transfer(address,uint256)": {
        "details": "See {IERC20-transfer}. Requirements: - `to` cannot be the zero address. - the caller must have a balance of at least `amount`."
      },
      "transferFrom(address,address,uint256)": {
        "details": "See {IERC20-transferFrom}. Emits an {Approval} event indicating the updated allowance. This is not required by the EIP. See the note at the beginning of {ERC20}. NOTE: Does not update the allowance if the current allowance is the maximum `uint256`. Requirements: - `from` and `to` cannot be the zero address. - `from` must have a balance of at least `amount`. - the caller must have allowance for ``from``'s tokens of at least `amount`."
      }
    },
    "version": 1
  },
  "userdoc": {
    "kind": "user",
    "methods": {},
    "version": 1
  }
}