{
  "contractName": "EBookStore",
  "abi": [
    {
      "inputs": [],
      "stateMutability": "nonpayable",
      "type": "constructor"
    },
    {
      "inputs": [
        {
          "internalType": "uint256",
          "name": "price",
          "type": "uint256"
        },
        {
          "internalType": "string",
          "name": "isbn",
          "type": "string"
        }
      ],
      "name": "addEBook",
      "outputs": [],
      "stateMutability": "nonpayable",
      "type": "function"
    },
    {
      "inputs": [
        {
          "internalType": "string",
          "name": "isbn",
          "type": "string"
        }
      ],
      "name": "buyEBook",
      "outputs": [],
      "stateMutability": "payable",
      "type": "function",
      "payable": true
    },
    {
      "inputs": [],
      "name": "getPurchasedEBooks",
      "outputs": [
        {
          "components": [
            {
              "internalType": "uint256",
              "name": "price",
              "type": "uint256"
            },
            {
              "internalType": "string",
              "name": "isbn",
              "type": "string"
            },
            {
              "internalType": "uint256",
              "name": "purchaseDate",
              "type": "uint256"
            },
            {
              "internalType": "address",
              "name": "buyer",
              "type": "address"
            }
          ],
          "internalType": "struct EBookStore.EbookBuyed[]",
          "name": "",
          "type": "tuple[]"
        }
      ],
      "stateMutability": "view",
      "type": "function",
      "constant": true
    },
    {
      "inputs": [],
      "name": "getAllEBooks",
      "outputs": [
        {
          "components": [
            {
              "internalType": "uint256",
              "name": "price",
              "type": "uint256"
            },
            {
              "internalType": "string",
              "name": "isbn",
              "type": "string"
            }
          ],
          "internalType": "struct EBookStore.Ebook[]",
          "name": "",
          "type": "tuple[]"
        }
      ],
      "stateMutability": "view",
      "type": "function",
      "constant": true
    },
    {
      "inputs": [],
      "name": "isOwner",
      "outputs": [
        {
          "internalType": "bool",
          "name": "",
          "type": "bool"
        }
      ],
      "stateMutability": "view",
      "type": "function",
      "constant": true
    },
    {
      "inputs": [],
      "name": "withdrawAll",
      "outputs": [],
      "stateMutability": "nonpayable",
      "type": "function"
    },
    {
      "inputs": [],
      "name": "getContractBalance",
      "outputs": [
        {
          "internalType": "uint256",
          "name": "",
          "type": "uint256"
        }
      ],
      "stateMutability": "view",
      "type": "function",
      "constant": true
    }
  ],
  "bytecode": "0x60806040523480156200001157600080fd5b5033600460006101000a81548173ffffffffffffffffffffffffffffffffffffffff021916908373ffffffffffffffffffffffffffffffffffffffff160217905550620000a1661def02b5860c1c6040518060400160405280600d81526020017f3937383838323030373738373400000000000000000000000000000000000000815250620001df60201b60201c565b620000ef6603a4bff22f8c1c6040518060400160405280600d81526020017f3937383838303632333535353800000000000000000000000000000000000000815250620001df60201b60201c565b6200013d66056b7f4492cc1c6040518060400160405280600d81526020017f3937383838313136303834333400000000000000000000000000000000000000815250620001df60201b60201c565b6200018b6616d4056bf90c1c6040518060400160405280600d81526020017f3937383838303436363836393800000000000000000000000000000000000000815250620001df60201b60201c565b620001d966134686c7328c1c6040518060400160405280600d81526020017f3937383838303632323230383400000000000000000000000000000000000000815250620001df60201b60201c565b6200075f565b620001ef620003a360201b60201c565b62000231576040517f08c379a00000000000000000000000000000000000000000000000000000000081526004016200022890620005b4565b60405180910390fd5b600060038260405162000245919062000557565b908152602001604051809103902060000154146200029a576040517f08c379a0000000000000000000000000000000000000000000000000000000008152600401620002919062000592565b60405180910390fd5b600d815114620002e1576040517f08c379a0000000000000000000000000000000000000000000000000000000008152600401620002d89062000570565b60405180910390fd5b60006040518060400160405280848152602001838152509050806003836040516200030d919062000557565b908152602001604051809103902060008201518160000155602082015181600101908051906020019062000343929190620003fb565b5090505060008190806001815401808255809150506001900390600052602060002090600202016000909190919091506000820151816000015560208201518160010190805190602001906200039b929190620003fb565b505050505050565b6000600460009054906101000a900473ffffffffffffffffffffffffffffffffffffffff1673ffffffffffffffffffffffffffffffffffffffff163373ffffffffffffffffffffffffffffffffffffffff1614905090565b828054620004099062000633565b90600052602060002090601f0160209004810192826200042d576000855562000479565b82601f106200044857805160ff191683800117855562000479565b8280016001018555821562000479579182015b82811115620004785782518255916020019190600101906200045b565b5b5090506200048891906200048c565b5090565b5b80821115620004a75760008160009055506001016200048d565b5090565b6000620004b882620005d6565b620004c48185620005f2565b9350620004d6818560208601620005fd565b80840191505092915050565b6000620004f1600f83620005e1565b9150620004fe8262000698565b602082019050919050565b600062000518602183620005e1565b91506200052582620006c1565b604082019050919050565b60006200053f602583620005e1565b91506200054c8262000710565b604082019050919050565b6000620005658284620004ab565b915081905092915050565b600060208201905081810360008301526200058b81620004e2565b9050919050565b60006020820190508181036000830152620005ad8162000509565b9050919050565b60006020820190508181036000830152620005cf8162000530565b9050919050565b600081519050919050565b600082825260208201905092915050565b600081905092915050565b60005b838110156200061d57808201518184015260208101905062000600565b838111156200062d576000848401525b50505050565b600060028204905060018216806200064c57607f821691505b6020821081141562000663576200066262000669565b5b50919050565b7f4e487b7100000000000000000000000000000000000000000000000000000000600052602260045260246000fd5b7f4953424e206e6f6e2076616c69646f0000000000000000000000000000000000600082015250565b7f45626f6f6b20676961272070726573656e7465206e656c20636f6e747261747460008201527f6f00000000000000000000000000000000000000000000000000000000000000602082015250565b7f4e6f6e2073656920696c2070726f70726965746172696f2064656c20636f6e7460008201527f726174746f000000000000000000000000000000000000000000000000000000602082015250565b611831806200076f6000396000f3fe6080604052600436106100705760003560e01c8063853828b61161004e578063853828b6146100f45780638f32d59b1461010b578063ef09860414610136578063fa2b11e71461016157610070565b806325059ba5146100755780633a4a783b146100a05780636f9fb98a146100c9575b600080fd5b34801561008157600080fd5b5061008a61017d565b604051610097919061113e565b60405180910390f35b3480156100ac57600080fd5b506100c760048036038101906100c29190610d00565b610315565b005b3480156100d557600080fd5b506100de6104c0565b6040516100eb91906112bd565b60405180910390f35b34801561010057600080fd5b50610109610511565b005b34801561011757600080fd5b50610120610679565b60405161012d9190611182565b60405180910390f35b34801561014257600080fd5b5061014b6106d1565b6040516101589190611160565b60405180910390f35b61017b60048036038101906101769190610cb7565b6107cc565b005b6060600160003373ffffffffffffffffffffffffffffffffffffffff1673ffffffffffffffffffffffffffffffffffffffff168152602001908152602001600020805480602002602001604051908101604052809291908181526020016000905b8282101561030c57838290600052602060002090600402016040518060800160405290816000820154815260200160018201805461021b906114c3565b80601f0160208091040260200160405190810160405280929190818152602001828054610247906114c3565b80156102945780601f1061026957610100808354040283529160200191610294565b820191906000526020600020905b81548152906001019060200180831161027757829003601f168201915b50505050508152602001600282015481526020016003820160009054906101000a900473ffffffffffffffffffffffffffffffffffffffff1673ffffffffffffffffffffffffffffffffffffffff1673ffffffffffffffffffffffffffffffffffffffff1681525050815260200190600101906101de565b50505050905090565b61031d610679565b61035c576040517f08c379a00000000000000000000000000000000000000000000000000000000081526004016103539061127d565b60405180910390fd5b600060038260405161036e9190611112565b908152602001604051809103902060000154146103c0576040517f08c379a00000000000000000000000000000000000000000000000000000000081526004016103b7906111fd565b60405180910390fd5b600d815114610404576040517f08c379a00000000000000000000000000000000000000000000000000000000081526004016103fb906111dd565b60405180910390fd5b600060405180604001604052808481526020018381525090508060038360405161042e9190611112565b9081526020016040518091039020600082015181600001556020820151816001019080519060200190610462929190610b8f565b5090505060008190806001815401808255809150506001900390600052602060002090600202016000909190919091506000820151816000015560208201518160010190805190602001906104b8929190610b8f565b505050505050565b60006104ca610679565b610509576040517f08c379a00000000000000000000000000000000000000000000000000000000081526004016105009061127d565b60405180910390fd5b600554905090565b610519610679565b610558576040517f08c379a000000000000000000000000000000000000000000000000000000000815260040161054f9061127d565b60405180910390fd5b6000600554141561059e576040517f08c379a00000000000000000000000000000000000000000000000000000000081526004016105959061129d565b60405180910390fd5b6000600460009054906101000a900473ffffffffffffffffffffffffffffffffffffffff1673ffffffffffffffffffffffffffffffffffffffff166005546040516105e890611129565b60006040518083038185875af1925050503d8060008114610625576040519150601f19603f3d011682016040523d82523d6000602084013e61062a565b606091505b505090508061066e576040517f08c379a00000000000000000000000000000000000000000000000000000000081526004016106659061123d565b60405180910390fd5b600060058190555050565b6000600460009054906101000a900473ffffffffffffffffffffffffffffffffffffffff1673ffffffffffffffffffffffffffffffffffffffff163373ffffffffffffffffffffffffffffffffffffffff1614905090565b60606000805480602002602001604051908101604052809291908181526020016000905b828210156107c3578382906000526020600020906002020160405180604001604052908160008201548152602001600182018054610732906114c3565b80601f016020809104026020016040519081016040528092919081815260200182805461075e906114c3565b80156107ab5780601f10610780576101008083540402835291602001916107ab565b820191906000526020600020905b81548152906001019060200180831161078e57829003601f168201915b505050505081525050815260200190600101906106f5565b50505050905090565b6107d4610679565b15610814576040517f08c379a000000000000000000000000000000000000000000000000000000000815260040161080b906111bd565b60405180910390fd5b60006003826040516108269190611112565b9081526020016040518091039020600001541415610879576040517f08c379a00000000000000000000000000000000000000000000000000000000081526004016108709061125d565b60405180910390fd5b6003816040516108899190611112565b90815260200160405180910390206000015434146108dc576040517f08c379a00000000000000000000000000000000000000000000000000000000081526004016108d39061119d565b60405180910390fd5b6000600260003373ffffffffffffffffffffffffffffffffffffffff1673ffffffffffffffffffffffffffffffffffffffff1681526020019081526020016000208260405161092b9190611112565b9081526020016040518091039020600001541461097d576040517f08c379a00000000000000000000000000000000000000000000000000000000081526004016109749061121d565b60405180910390fd5b600060405180608001604052803481526020018381526020014281526020013373ffffffffffffffffffffffffffffffffffffffff168152509050600160003373ffffffffffffffffffffffffffffffffffffffff1673ffffffffffffffffffffffffffffffffffffffff168152602001908152602001600020819080600181540180825580915050600190039060005260206000209060040201600090919091909150600082015181600001556020820151816001019080519060200190610a47929190610b8f565b506040820151816002015560608201518160030160006101000a81548173ffffffffffffffffffffffffffffffffffffffff021916908373ffffffffffffffffffffffffffffffffffffffff160217905550505080600260003373ffffffffffffffffffffffffffffffffffffffff1673ffffffffffffffffffffffffffffffffffffffff16815260200190815260200160002083604051610ae99190611112565b9081526020016040518091039020600082015181600001556020820151816001019080519060200190610b1d929190610b8f565b506040820151816002015560608201518160030160006101000a81548173ffffffffffffffffffffffffffffffffffffffff021916908373ffffffffffffffffffffffffffffffffffffffff1602179055509050503460056000828254610b8491906113e3565b925050819055505050565b828054610b9b906114c3565b90600052602060002090601f016020900481019282610bbd5760008555610c04565b82601f10610bd657805160ff1916838001178555610c04565b82800160010185558215610c04579182015b82811115610c03578251825591602001919060010190610be8565b5b509050610c119190610c15565b5090565b5b80821115610c2e576000816000905550600101610c16565b5090565b6000610c45610c40846112fd565b6112d8565b905082815260208101848484011115610c6157610c606115b8565b5b610c6c848285611481565b509392505050565b600082601f830112610c8957610c886115b3565b5b8135610c99848260208601610c32565b91505092915050565b600081359050610cb1816117e4565b92915050565b600060208284031215610ccd57610ccc6115c2565b5b600082013567ffffffffffffffff811115610ceb57610cea6115bd565b5b610cf784828501610c74565b91505092915050565b60008060408385031215610d1757610d166115c2565b5b6000610d2585828601610ca2565b925050602083013567ffffffffffffffff811115610d4657610d456115bd565b5b610d5285828601610c74565b9150509250929050565b6000610d688383611054565b905092915050565b6000610d7c83836110b7565b905092915050565b610d8d81611439565b82525050565b6000610d9e8261134e565b610da88185611389565b935083602082028501610dba8561132e565b8060005b85811015610df65784840389528151610dd78582610d5c565b9450610de28361136f565b925060208a01995050600181019050610dbe565b50829750879550505050505092915050565b6000610e1382611359565b610e1d818561139a565b935083602082028501610e2f8561133e565b8060005b85811015610e6b5784840389528151610e4c8582610d70565b9450610e578361137c565b925060208a01995050600181019050610e33565b50829750879550505050505092915050565b610e868161144b565b82525050565b6000610e9782611364565b610ea181856113b6565b9350610eb1818560208601611490565b610eba816115c7565b840191505092915050565b6000610ed082611364565b610eda81856113d8565b9350610eea818560208601611490565b80840191505092915050565b6000610f036022836113c7565b9150610f0e826115d8565b604082019050919050565b6000610f26603c836113c7565b9150610f3182611627565b604082019050919050565b6000610f49600f836113c7565b9150610f5482611676565b602082019050919050565b6000610f6c6021836113c7565b9150610f778261169f565b604082019050919050565b6000610f8f6015836113c7565b9150610f9a826116ee565b602082019050919050565b6000610fb26015836113c7565b9150610fbd82611717565b602082019050919050565b6000610fd56020836113c7565b9150610fe082611740565b602082019050919050565b6000610ff86000836113ab565b915061100382611769565b600082019050919050565b600061101b6025836113c7565b91506110268261176c565b604082019050919050565b600061103e601e836113c7565b9150611049826117bb565b602082019050919050565b600060808301600083015161106c60008601826110f4565b50602083015184820360208601526110848282610e8c565b915050604083015161109960408601826110f4565b5060608301516110ac6060860182610d84565b508091505092915050565b60006040830160008301516110cf60008601826110f4565b50602083015184820360208601526110e78282610e8c565b9150508091505092915050565b6110fd81611477565b82525050565b61110c81611477565b82525050565b600061111e8284610ec5565b915081905092915050565b600061113482610feb565b9150819050919050565b600060208201905081810360008301526111588184610d93565b905092915050565b6000602082019050818103600083015261117a8184610e08565b905092915050565b60006020820190506111976000830184610e7d565b92915050565b600060208201905081810360008301526111b681610ef6565b9050919050565b600060208201905081810360008301526111d681610f19565b9050919050565b600060208201905081810360008301526111f681610f3c565b9050919050565b6000602082019050818103600083015261121681610f5f565b9050919050565b6000602082019050818103600083015261123681610f82565b9050919050565b6000602082019050818103600083015261125681610fa5565b9050919050565b6000602082019050818103600083015261127681610fc8565b9050919050565b600060208201905081810360008301526112968161100e565b9050919050565b600060208201905081810360008301526112b681611031565b9050919050565b60006020820190506112d26000830184611103565b92915050565b60006112e26112f3565b90506112ee82826114f5565b919050565b6000604051905090565b600067ffffffffffffffff82111561131857611317611584565b5b611321826115c7565b9050602081019050919050565b6000819050602082019050919050565b6000819050602082019050919050565b600081519050919050565b600081519050919050565b600081519050919050565b6000602082019050919050565b6000602082019050919050565b600082825260208201905092915050565b600082825260208201905092915050565b600081905092915050565b600082825260208201905092915050565b600082825260208201905092915050565b600081905092915050565b60006113ee82611477565b91506113f983611477565b9250827fffffffffffffffffffffffffffffffffffffffffffffffffffffffffffffffff0382111561142e5761142d611526565b5b828201905092915050565b600061144482611457565b9050919050565b60008115159050919050565b600073ffffffffffffffffffffffffffffffffffffffff82169050919050565b6000819050919050565b82818337600083830152505050565b60005b838110156114ae578082015181840152602081019050611493565b838111156114bd576000848401525b50505050565b600060028204905060018216806114db57607f821691505b602082108114156114ef576114ee611555565b5b50919050565b6114fe826115c7565b810181811067ffffffffffffffff8211171561151d5761151c611584565b5b80604052505050565b7f4e487b7100000000000000000000000000000000000000000000000000000000600052601160045260246000fd5b7f4e487b7100000000000000000000000000000000000000000000000000000000600052602260045260246000fd5b7f4e487b7100000000000000000000000000000000000000000000000000000000600052604160045260246000fd5b600080fd5b600080fd5b600080fd5b600080fd5b6000601f19601f8301169050919050565b7f53616c646f20696e73756666696369656e746520706572206c2761637175697360008201527f746f000000000000000000000000000000000000000000000000000000000000602082015250565b7f53656920696c2070726f70726965746172696f2064656c20636f6e747261747460008201527f6f2c206e6f6e2070756f692061637175697374617265206c6962726900000000602082015250565b7f4953424e206e6f6e2076616c69646f0000000000000000000000000000000000600082015250565b7f45626f6f6b20676961272070726573656e7465206e656c20636f6e747261747460008201527f6f00000000000000000000000000000000000000000000000000000000000000602082015250565b7f45626f6f6b2067696127206163717569737461746f0000000000000000000000600082015250565b7f54726173666572696d656e746f2066616c6c69746f0000000000000000000000600082015250565b7f45626f6f6b206e6f6e2070726573656e7465206e656c20636f6e74726174746f600082015250565b50565b7f4e6f6e2073656920696c2070726f70726965746172696f2064656c20636f6e7460008201527f726174746f000000000000000000000000000000000000000000000000000000602082015250565b7f4e6f6e20636920736f6e6f20666f6e6469206461207072656c65766172650000600082015250565b6117ed81611477565b81146117f857600080fd5b5056fea2646970667358221220b774ebd81659263095a555b9110afc7cfe5ed79eb7536d27cc7d8e414014d1a964736f6c63430008070033",
  "immutableReferences": {},
  "source": "//SPDX-License-Identifier: UNLICENSED\r\npragma solidity ^0.8.0;\r\n\r\ncontract EBookStore {\r\n  struct Ebook {\r\n    uint256 price;\r\n    string isbn;\r\n  }\r\n\r\n  struct EbookBuyed {\r\n    uint256 price;\r\n    string isbn;\r\n    uint purchaseDate;\r\n    address buyer;\r\n  }\r\n\r\n  Ebook[] private ebookNelContrattolist;\r\n  mapping(address => EbookBuyed[]) private ebookAcquistatiList;\r\n  mapping(address => mapping(string => EbookBuyed)) private ebookAcquistati;\r\n  mapping(string => Ebook) private ebookNelContratto;\r\n\r\n  address private seller; //Rendi immutabile\r\n  uint256 private balance;\r\n\r\n  constructor() {\r\n    seller = msg.sender;\r\n    //Rimuovi i mock!\r\n    addEBook(8425569239043100, \"9788820077874\");\r\n    addEBook(1025569239043100, \"9788806235558\");\r\n    addEBook(1525569239043100, \"9788811608434\");\r\n    addEBook(6425569239043100, \"9788804668698\");\r\n    addEBook(5425569239043100, \"9788806222084\");\r\n  }\r\n\r\n  function addEBook(uint256 price, string memory isbn) public {\r\n    require(isOwner(), \"Non sei il proprietario del contratto\");\r\n    require(ebookNelContratto[isbn].price == 0, \"Ebook gia' presente nel contratto\");\r\n    require(bytes(isbn).length == 13, \"ISBN non valido\");\r\n    Ebook memory ebook = Ebook(price, isbn);\r\n    ebookNelContratto[isbn] = ebook;\r\n    ebookNelContrattolist.push(ebook);\r\n  }\r\n\r\n  function buyEBook(string memory isbn) external payable {\r\n    require(!isOwner(), \"Sei il proprietario del contratto, non puoi acquistare libri\");\r\n    require(ebookNelContratto[isbn].price != 0, \"Ebook non presente nel contratto\");\r\n    require(msg.value == ebookNelContratto[isbn].price, \"Saldo insufficiente per l'acquisto\");\r\n    require(ebookAcquistati[msg.sender][isbn].price == 0, \"Ebook gia' acquistato\");\r\n    EbookBuyed memory ebookComprato = EbookBuyed(msg.value, isbn, block.timestamp, msg.sender);\r\n    ebookAcquistatiList[msg.sender].push(ebookComprato);\r\n    ebookAcquistati[msg.sender][isbn] = ebookComprato;\r\n    balance += msg.value;\r\n  }\r\n\r\n  function getPurchasedEBooks() external view returns (EbookBuyed[] memory) {\r\n    return ebookAcquistatiList[msg.sender];\r\n  }\r\n\r\n  function getAllEBooks() external view returns (Ebook[] memory) {\r\n    return ebookNelContrattolist;\r\n  }\r\n\r\n  function isOwner() public view returns (bool) {\r\n    return msg.sender == seller;\r\n  }\r\n\r\n  function withdrawAll() external {\r\n    require(isOwner(), \"Non sei il proprietario del contratto\");\r\n    require(balance != 0, \"Non ci sono fondi da prelevare\");\r\n    (bool success,) = seller.call{value : balance}(\"\");\r\n    require(success, \"Trasferimento fallito\");\r\n    balance = 0;\r\n  }\r\n\r\n  function getContractBalance() external view returns (uint){\r\n    require(isOwner(), \"Non sei il proprietario del contratto\");\r\n    return balance;\r\n  }\r\n\r\n}\r\n",
  "sourcePath": "C:\\Users\\vr99\\IdeaProjects\\BookStore-DApp\\Blockchain\\contracts\\EbookStore.sol",
  "compiler": {
    "name": "solc",
    "version": "0.8.7+commit.e28d00a7.Emscripten.clang"
  },
  "schemaVersion": "3.4.11",
  "updatedAt": "2023-03-01T03:47:22.839Z",
  "networkType": "ethereum",
  "devdoc": {
    "kind": "dev",
    "methods": {},
    "version": 1
  },
  "userdoc": {
    "kind": "user",
    "methods": {},
    "version": 1
  }
}