{
  "contractName": "EbookStore",
  "abi": [
    {
      "inputs": [],
      "stateMutability": "nonpayable",
      "type": "constructor"
    },
    {
      "anonymous": false,
      "inputs": [
        {
          "indexed": false,
          "internalType": "address",
          "name": "buyer",
          "type": "address"
        },
        {
          "indexed": false,
          "internalType": "uint256",
          "name": "price",
          "type": "uint256"
        },
        {
          "indexed": false,
          "internalType": "uint256",
          "name": "purchaseDate",
          "type": "uint256"
        },
        {
          "indexed": false,
          "internalType": "string",
          "name": "_isbn",
          "type": "string"
        }
      ],
      "name": "EbookPurchased",
      "type": "event"
    },
    {
      "inputs": [],
      "name": "getOwner",
      "outputs": [
        {
          "internalType": "string",
          "name": "",
          "type": "string"
        }
      ],
      "stateMutability": "view",
      "type": "function"
    },
    {
      "inputs": [
        {
          "internalType": "string",
          "name": "_isbn",
          "type": "string"
        }
      ],
      "name": "buyEbook",
      "outputs": [],
      "stateMutability": "payable",
      "type": "function"
    },
    {
      "inputs": [],
      "name": "getBuyerEbooks2",
      "outputs": [
        {
          "components": [
            {
              "internalType": "address",
              "name": "buyer",
              "type": "address"
            },
            {
              "internalType": "uint256",
              "name": "price",
              "type": "uint256"
            },
            {
              "internalType": "uint256",
              "name": "purchaseDate",
              "type": "uint256"
            },
            {
              "internalType": "string",
              "name": "isbn",
              "type": "string"
            }
          ],
          "internalType": "struct EbookStore.Ebook[]",
          "name": "",
          "type": "tuple[]"
        }
      ],
      "stateMutability": "view",
      "type": "function"
    },
    {
      "inputs": [],
      "name": "getLen",
      "outputs": [
        {
          "internalType": "uint256",
          "name": "",
          "type": "uint256"
        }
      ],
      "stateMutability": "view",
      "type": "function"
    },
    {
      "inputs": [],
      "name": "getBuyerEbooks",
      "outputs": [
        {
          "internalType": "bool",
          "name": "",
          "type": "bool"
        }
      ],
      "stateMutability": "view",
      "type": "function"
    }
  ],
  "bytecode": "0x608060405234801561001057600080fd5b50336000806101000a81548173ffffffffffffffffffffffffffffffffffffffff021916908373ffffffffffffffffffffffffffffffffffffffff16021790555061129a806100606000396000f3fe60806040526004361061004a5760003560e01c806309fd1ccf1461004f5780634a90be571461007a578063749c3782146100a5578063893d20e8146100d05780639aecec56146100fb575b600080fd5b34801561005b57600080fd5b50610064610117565b6040516100719190610d31565b60405180910390f35b34801561008657600080fd5b5061008f6102af565b60405161009c9190610e10565b60405180910390f35b3480156100b157600080fd5b506100ba6102fe565b6040516100c79190610d53565b60405180910390f35b3480156100dc57600080fd5b506100e5610307565b6040516100f29190610d6e565b60405180910390f35b61011560048036038101906101109190610a1f565b61034f565b005b6060600260003373ffffffffffffffffffffffffffffffffffffffff1673ffffffffffffffffffffffffffffffffffffffff168152602001908152602001600020805480602002602001604051908101604052809291908181526020016000905b828210156102a657838290600052602060002090600402016040518060800160405290816000820160009054906101000a900473ffffffffffffffffffffffffffffffffffffffff1673ffffffffffffffffffffffffffffffffffffffff1673ffffffffffffffffffffffffffffffffffffffff168152602001600182015481526020016002820154815260200160038201805461021590611056565b80601f016020809104026020016040519081016040528092919081815260200182805461024190611056565b801561028e5780601f106102635761010080835404028352916020019161028e565b820191906000526020600020905b81548152906001019060200180831161027157829003601f168201915b50505050508152505081526020019060010190610178565b50505050905090565b600080600260003373ffffffffffffffffffffffffffffffffffffffff1673ffffffffffffffffffffffffffffffffffffffff1681526020019081526020016000208054905090508091505090565b60006001905090565b606061034a60008054906101000a900473ffffffffffffffffffffffffffffffffffffffff1673ffffffffffffffffffffffffffffffffffffffff1660146106d0565b905090565b3373ffffffffffffffffffffffffffffffffffffffff1660008054906101000a900473ffffffffffffffffffffffffffffffffffffffff1673ffffffffffffffffffffffffffffffffffffffff1614156103de576040517f08c379a00000000000000000000000000000000000000000000000000000000081526004016103d590610db0565b60405180910390fd5b60003411610421576040517f08c379a000000000000000000000000000000000000000000000000000000000815260040161041890610df0565b60405180910390fd5b3373ffffffffffffffffffffffffffffffffffffffff166001826040516104489190610cce565b908152602001604051809103902060000160009054906101000a900473ffffffffffffffffffffffffffffffffffffffff1673ffffffffffffffffffffffffffffffffffffffff1614156104d1576040517f08c379a00000000000000000000000000000000000000000000000000000000081526004016104c890610dd0565b60405180910390fd5b6000349050600060405180608001604052803373ffffffffffffffffffffffffffffffffffffffff168152602001838152602001428152602001848152509050806001846040516105229190610cce565b908152602001604051809103902060008201518160000160006101000a81548173ffffffffffffffffffffffffffffffffffffffff021916908373ffffffffffffffffffffffffffffffffffffffff160217905550602082015181600101556040820151816002015560608201518160030190805190602001906105a792919061090c565b50905050600260003373ffffffffffffffffffffffffffffffffffffffff1673ffffffffffffffffffffffffffffffffffffffff16815260200190815260200160002081908060018154018082558091505060019003906000526020600020906004020160009091909190915060008201518160000160006101000a81548173ffffffffffffffffffffffffffffffffffffffff021916908373ffffffffffffffffffffffffffffffffffffffff1602179055506020820151816001015560408201518160020155606082015181600301908051906020019061068b92919061090c565b5050507feca72ef9357c9749d89b1622a32b820fc4f395a0609aeae9fac1e1d1c9dd1eb3338342866040516106c39493929190610ce5565b60405180910390a1505050565b6060600060028360026106e39190610f48565b6106ed9190610ef2565b67ffffffffffffffff81111561070657610705611146565b5b6040519080825280601f01601f1916602001820160405280156107385781602001600182028036833780820191505090505b5090507f3000000000000000000000000000000000000000000000000000000000000000816000815181106107705761076f611117565b5b60200101907effffffffffffffffffffffffffffffffffffffffffffffffffffffffffffff1916908160001a9053507f7800000000000000000000000000000000000000000000000000000000000000816001815181106107d4576107d3611117565b5b60200101907effffffffffffffffffffffffffffffffffffffffffffffffffffffffffffff1916908160001a905350600060018460026108149190610f48565b61081e9190610ef2565b90505b60018111156108be577f3031323334353637383961626364656600000000000000000000000000000000600f8616601081106108605761085f611117565b5b1a60f81b82828151811061087757610876611117565b5b60200101907effffffffffffffffffffffffffffffffffffffffffffffffffffffffffffff1916908160001a905350600485901c9450806108b79061102c565b9050610821565b5060008414610902576040517f08c379a00000000000000000000000000000000000000000000000000000000081526004016108f990610d90565b60405180910390fd5b8091505092915050565b82805461091890611056565b90600052602060002090601f01602090048101928261093a5760008555610981565b82601f1061095357805160ff1916838001178555610981565b82800160010185558215610981579182015b82811115610980578251825591602001919060010190610965565b5b50905061098e9190610992565b5090565b5b808211156109ab576000816000905550600101610993565b5090565b60006109c26109bd84610e50565b610e2b565b9050828152602081018484840111156109de576109dd61117a565b5b6109e9848285610fea565b509392505050565b600082601f830112610a0657610a05611175565b5b8135610a168482602086016109af565b91505092915050565b600060208284031215610a3557610a34611184565b5b600082013567ffffffffffffffff811115610a5357610a5261117f565b5b610a5f848285016109f1565b91505092915050565b6000610a748383610c4d565b905092915050565b610a8581610fa2565b82525050565b610a9481610fa2565b82525050565b6000610aa582610e91565b610aaf8185610eb4565b935083602082028501610ac185610e81565b8060005b85811015610afd5784840389528151610ade8582610a68565b9450610ae983610ea7565b925060208a01995050600181019050610ac5565b50829750879550505050505092915050565b610b1881610fb4565b82525050565b6000610b2982610e9c565b610b338185610ec5565b9350610b43818560208601610ff9565b610b4c81611189565b840191505092915050565b6000610b6282610e9c565b610b6c8185610ed6565b9350610b7c818560208601610ff9565b610b8581611189565b840191505092915050565b6000610b9b82610e9c565b610ba58185610ee7565b9350610bb5818560208601610ff9565b80840191505092915050565b6000610bce602083610ed6565b9150610bd98261119a565b602082019050919050565b6000610bf1600f83610ed6565b9150610bfc826111c3565b602082019050919050565b6000610c14601983610ed6565b9150610c1f826111ec565b602082019050919050565b6000610c37602e83610ed6565b9150610c4282611215565b604082019050919050565b6000608083016000830151610c656000860182610a7c565b506020830151610c786020860182610cb0565b506040830151610c8b6040860182610cb0565b5060608301518482036060860152610ca38282610b1e565b9150508091505092915050565b610cb981610fe0565b82525050565b610cc881610fe0565b82525050565b6000610cda8284610b90565b915081905092915050565b6000608082019050610cfa6000830187610a8b565b610d076020830186610cbf565b610d146040830185610cbf565b8181036060830152610d268184610b57565b905095945050505050565b60006020820190508181036000830152610d4b8184610a9a565b905092915050565b6000602082019050610d686000830184610b0f565b92915050565b60006020820190508181036000830152610d888184610b57565b905092915050565b60006020820190508181036000830152610da981610bc1565b9050919050565b60006020820190508181036000830152610dc981610be4565b9050919050565b60006020820190508181036000830152610de981610c07565b9050919050565b60006020820190508181036000830152610e0981610c2a565b9050919050565b6000602082019050610e256000830184610cbf565b92915050565b6000610e35610e46565b9050610e418282611088565b919050565b6000604051905090565b600067ffffffffffffffff821115610e6b57610e6a611146565b5b610e7482611189565b9050602081019050919050565b6000819050602082019050919050565b600081519050919050565b600081519050919050565b6000602082019050919050565b600082825260208201905092915050565b600082825260208201905092915050565b600082825260208201905092915050565b600081905092915050565b6000610efd82610fe0565b9150610f0883610fe0565b9250827fffffffffffffffffffffffffffffffffffffffffffffffffffffffffffffffff03821115610f3d57610f3c6110b9565b5b828201905092915050565b6000610f5382610fe0565b9150610f5e83610fe0565b9250817fffffffffffffffffffffffffffffffffffffffffffffffffffffffffffffffff0483118215151615610f9757610f966110b9565b5b828202905092915050565b6000610fad82610fc0565b9050919050565b60008115159050919050565b600073ffffffffffffffffffffffffffffffffffffffff82169050919050565b6000819050919050565b82818337600083830152505050565b60005b83811015611017578082015181840152602081019050610ffc565b83811115611026576000848401525b50505050565b600061103782610fe0565b9150600082141561104b5761104a6110b9565b5b600182039050919050565b6000600282049050600182168061106e57607f821691505b60208210811415611082576110816110e8565b5b50919050565b61109182611189565b810181811067ffffffffffffffff821117156110b0576110af611146565b5b80604052505050565b7f4e487b7100000000000000000000000000000000000000000000000000000000600052601160045260246000fd5b7f4e487b7100000000000000000000000000000000000000000000000000000000600052602260045260246000fd5b7f4e487b7100000000000000000000000000000000000000000000000000000000600052603260045260246000fd5b7f4e487b7100000000000000000000000000000000000000000000000000000000600052604160045260246000fd5b600080fd5b600080fd5b600080fd5b600080fd5b6000601f19601f8301169050919050565b7f537472696e67733a20686578206c656e67746820696e73756666696369656e74600082015250565b7f62726f207475206e6f6e2070756f690000000000000000000000000000000000600082015250565b7f412073692061636361747461742067696127206f206c69627200000000000000600082015250565b7f496c207072657a7a6f2064656c206c6962726f2064657665206573736572652060008201527f6d616767696f726520646920302e00000000000000000000000000000000000060208201525056fea26469706673582212203246d9e6344f593eea235f50358528c07987f126fb8e63f43081c78f848c5c7264736f6c63430008070033",
  "immutableReferences": {},
  "source": "pragma solidity ^0.8.0;\r\nimport \"@openzeppelin/contracts/utils/Strings.sol\";\r\n\r\ncontract EbookStore  {\r\n  struct Ebook {\r\n    address buyer;\r\n    uint price;\r\n    uint purchaseDate;\r\n    string isbn;\r\n  }\r\n\r\n  address private owner;\r\n  mapping(string => Ebook) private bookBuyed;\r\n  mapping(address => Ebook[]) private buyerToEbooks;\r\n\r\n  constructor() {\r\n    owner = msg.sender;\r\n  }\r\n\r\n  function getOwner() public view returns(string memory) {\r\n    return Strings.toHexString(uint256(uint160(owner)), 20);\r\n  }\r\n\r\n  event EbookPurchased(address buyer, uint price, uint purchaseDate, string _isbn);\r\n\r\n  function buyEbook(string memory _isbn) public payable {\r\n    // Verifica che il prezzo del libro sia stato pagato correttamente\r\n    require(owner != msg.sender, \"bro tu non puoi\");\r\n    require(msg.value > 0, \"Il prezzo del libro deve essere maggiore di 0.\");\r\n    require(bookBuyed[_isbn].buyer != msg.sender, \"A si accattat gia' o libr\");\r\n    uint price = msg.value;\r\n\r\n    // Crea un nuovo ebook e lo aggiunge all'array di tutti gli ebook\r\n    Ebook memory newEbook = Ebook(msg.sender, price, block.timestamp, _isbn);\r\n    bookBuyed[_isbn] = newEbook;\r\n\r\n    // Aggiunge l'ebook all'array degli ebook dell'acquirente\r\n    buyerToEbooks[msg.sender].push(newEbook);\r\n\r\n    // Emette un evento per registrare l'acquisto\r\n    emit EbookPurchased(msg.sender, price, block.timestamp, _isbn);\r\n  }\r\n\r\n  function getBuyerEbooks2() public view returns (Ebook[] memory) {\r\n    return buyerToEbooks[msg.sender];\r\n  }\r\n\r\n  function getLen() public view returns (uint) {\r\n    uint x = buyerToEbooks[msg.sender].length;\r\n    return x;\r\n  }\r\n\r\n  function getBuyerEbooks() public view returns (bool) {\r\n    return true;\r\n  }\r\n}\r\n",
  "sourcePath": "C:\\Users\\vinciraia99\\IdeaProjects\\bookproject\\Blockchain\\contracts\\EbookStore.sol",
  "compiler": {
    "name": "solc",
    "version": "0.8.7+commit.e28d00a7.Emscripten.clang"
  },
  "schemaVersion": "3.4.12",
  "updatedAt": "2023-02-17T22:34:54.528Z",
  "devdoc": {
    "kind": "dev",
    "methods": {},
    "version": 1
  },
  "userdoc": {
    "kind": "user",
    "methods": {},
    "version": 1
  }
}