{
  "contractName": "EBookStoreFinal",
  "abi": [
    {
      "inputs": [],
      "stateMutability": "nonpayable",
      "type": "constructor"
    },
    {
      "inputs": [
        {
          "internalType": "uint256",
          "name": "price",
          "type": "uint256"
        },
        {
          "internalType": "string",
          "name": "isbn",
          "type": "string"
        }
      ],
      "name": "addEBook",
      "outputs": [],
      "stateMutability": "nonpayable",
      "type": "function"
    },
    {
      "inputs": [
        {
          "internalType": "string",
          "name": "isbn",
          "type": "string"
        }
      ],
      "name": "buyEBook",
      "outputs": [],
      "stateMutability": "payable",
      "type": "function",
      "payable": true
    },
    {
      "inputs": [],
      "name": "getPurchasedEBooks",
      "outputs": [
        {
          "components": [
            {
              "internalType": "uint256",
              "name": "price",
              "type": "uint256"
            },
            {
              "internalType": "string",
              "name": "isbn",
              "type": "string"
            },
            {
              "internalType": "uint256",
              "name": "purchaseDate",
              "type": "uint256"
            },
            {
              "internalType": "address",
              "name": "buyer",
              "type": "address"
            }
          ],
          "internalType": "struct EBookStoreFinal.EbookBuyed[]",
          "name": "",
          "type": "tuple[]"
        }
      ],
      "stateMutability": "view",
      "type": "function",
      "constant": true
    },
    {
      "inputs": [],
      "name": "getAllEBooks",
      "outputs": [
        {
          "components": [
            {
              "internalType": "uint256",
              "name": "price",
              "type": "uint256"
            },
            {
              "internalType": "string",
              "name": "isbn",
              "type": "string"
            }
          ],
          "internalType": "struct EBookStoreFinal.Ebook[]",
          "name": "",
          "type": "tuple[]"
        }
      ],
      "stateMutability": "view",
      "type": "function",
      "constant": true
    },
    {
      "inputs": [],
      "name": "isOwner",
      "outputs": [
        {
          "internalType": "bool",
          "name": "",
          "type": "bool"
        }
      ],
      "stateMutability": "view",
      "type": "function",
      "constant": true
    },
    {
      "inputs": [
        {
          "internalType": "uint256",
          "name": "amount",
          "type": "uint256"
        }
      ],
      "name": "withdraw",
      "outputs": [],
      "stateMutability": "nonpayable",
      "type": "function"
    },
    {
      "inputs": [],
      "name": "getContractBalance",
      "outputs": [
        {
          "internalType": "uint256",
          "name": "",
          "type": "uint256"
        }
      ],
      "stateMutability": "view",
      "type": "function",
      "constant": true
    }
  ],
  "bytecode": "0x60806040523480156200001157600080fd5b5033600360006101000a81548173ffffffffffffffffffffffffffffffffffffffff021916908373ffffffffffffffffffffffffffffffffffffffff160217905550620000a16616d4056bf90c1c6040518060400160405280600d81526020017f3132333435363738393031323300000000000000000000000000000000000000815250620000a760201b60201c565b62000627565b620000b76200026b60201b60201c565b620000f9576040517f08c379a0000000000000000000000000000000000000000000000000000000008152600401620000f0906200047c565b60405180910390fd5b600d81511462000140576040517f08c379a0000000000000000000000000000000000000000000000000000000008152600401620001379062000438565b60405180910390fd5b60006002826040516200015491906200041f565b90815260200160405180910390206000015414620001a9576040517f08c379a0000000000000000000000000000000000000000000000000000000008152600401620001a0906200045a565b60405180910390fd5b6000604051806040016040528084815260200183815250905080600283604051620001d591906200041f565b90815260200160405180910390206000820151816000015560208201518160010190805190602001906200020b929190620002c3565b50905050600081908060018154018082558091505060019003906000526020600020906002020160009091909190915060008201518160000155602082015181600101908051906020019062000263929190620002c3565b505050505050565b6000600360009054906101000a900473ffffffffffffffffffffffffffffffffffffffff1673ffffffffffffffffffffffffffffffffffffffff163373ffffffffffffffffffffffffffffffffffffffff1614905090565b828054620002d190620004fb565b90600052602060002090601f016020900481019282620002f5576000855562000341565b82601f106200031057805160ff191683800117855562000341565b8280016001018555821562000341579182015b828111156200034057825182559160200191906001019062000323565b5b50905062000350919062000354565b5090565b5b808211156200036f57600081600090555060010162000355565b5090565b600062000380826200049e565b6200038c8185620004ba565b93506200039e818560208601620004c5565b80840191505092915050565b6000620003b9600f83620004a9565b9150620003c68262000560565b602082019050919050565b6000620003e0602183620004a9565b9150620003ed8262000589565b604082019050919050565b600062000407602583620004a9565b91506200041482620005d8565b604082019050919050565b60006200042d828462000373565b915081905092915050565b600060208201905081810360008301526200045381620003aa565b9050919050565b600060208201905081810360008301526200047581620003d1565b9050919050565b600060208201905081810360008301526200049781620003f8565b9050919050565b600081519050919050565b600082825260208201905092915050565b600081905092915050565b60005b83811015620004e5578082015181840152602081019050620004c8565b83811115620004f5576000848401525b50505050565b600060028204905060018216806200051457607f821691505b602082108114156200052b576200052a62000531565b5b50919050565b7f4e487b7100000000000000000000000000000000000000000000000000000000600052602260045260246000fd5b7f4953424e206e6f6e2076616c69646f0000000000000000000000000000000000600082015250565b7f45626f6f6b20676961272070726573656e7465206e656c20636f6e747261747460008201527f6f00000000000000000000000000000000000000000000000000000000000000602082015250565b7f4e6f6e2073656920696c2070726f70726965746172696f2064656c20636f6e7460008201527f726174746f000000000000000000000000000000000000000000000000000000602082015250565b61187e80620006376000396000f3fe6080604052600436106100705760003560e01c80636f9fb98a1161004e5780636f9fb98a146100f25780638f32d59b1461011d578063ef09860414610148578063fa2b11e71461017357610070565b806325059ba5146100755780632e1a7d4d146100a05780633a4a783b146100c9575b600080fd5b34801561008157600080fd5b5061008a61018f565b60405161009791906111fb565b60405180910390f35b3480156100ac57600080fd5b506100c760048036038101906100c29190610dd6565b610327565b005b3480156100d557600080fd5b506100f060048036038101906100eb9190610e03565b610440565b005b3480156100fe57600080fd5b506101076105eb565b604051610114919061133a565b60405180910390f35b34801561012957600080fd5b5061013261063a565b60405161013f919061123f565b60405180910390f35b34801561015457600080fd5b5061015d610692565b60405161016a919061121d565b60405180910390f35b61018d60048036038101906101889190610d8d565b61078d565b005b6060600160003373ffffffffffffffffffffffffffffffffffffffff1673ffffffffffffffffffffffffffffffffffffffff168152602001908152602001600020805480602002602001604051908101604052809291908181526020016000905b8282101561031e57838290600052602060002090600402016040518060800160405290816000820154815260200160018201805461022d906114ea565b80601f0160208091040260200160405190810160405280929190818152602001828054610259906114ea565b80156102a65780601f1061027b576101008083540402835291602001916102a6565b820191906000526020600020905b81548152906001019060200180831161028957829003601f168201915b50505050508152602001600282015481526020016003820160009054906101000a900473ffffffffffffffffffffffffffffffffffffffff1673ffffffffffffffffffffffffffffffffffffffff1673ffffffffffffffffffffffffffffffffffffffff1681525050815260200190600101906101f0565b50505050905090565b61032f61063a565b61036e576040517f08c379a00000000000000000000000000000000000000000000000000000000081526004016103659061131a565b60405180910390fd5b6000600360009054906101000a900473ffffffffffffffffffffffffffffffffffffffff1673ffffffffffffffffffffffffffffffffffffffff16826040516103b6906111e6565b60006040518083038185875af1925050503d80600081146103f3576040519150601f19603f3d011682016040523d82523d6000602084013e6103f8565b606091505b505090508061043c576040517f08c379a0000000000000000000000000000000000000000000000000000000008152600401610433906112fa565b60405180910390fd5b5050565b61044861063a565b610487576040517f08c379a000000000000000000000000000000000000000000000000000000000815260040161047e9061131a565b60405180910390fd5b600d8151146104cb576040517f08c379a00000000000000000000000000000000000000000000000000000000081526004016104c29061129a565b60405180910390fd5b60006002826040516104dd91906111cf565b9081526020016040518091039020600001541461052f576040517f08c379a0000000000000000000000000000000000000000000000000000000008152600401610526906112ba565b60405180910390fd5b600060405180604001604052808481526020018381525090508060028360405161055991906111cf565b908152602001604051809103902060008201518160000155602082015181600101908051906020019061058d929190610c65565b5090505060008190806001815401808255809150506001900390600052602060002090600202016000909190919091506000820151816000015560208201518160010190805190602001906105e3929190610c65565b505050505050565b60006105f561063a565b610634576040517f08c379a000000000000000000000000000000000000000000000000000000000815260040161062b9061131a565b60405180910390fd5b47905090565b6000600360009054906101000a900473ffffffffffffffffffffffffffffffffffffffff1673ffffffffffffffffffffffffffffffffffffffff163373ffffffffffffffffffffffffffffffffffffffff1614905090565b60606000805480602002602001604051908101604052809291908181526020016000905b828210156107845783829060005260206000209060020201604051806040016040529081600082015481526020016001820180546106f3906114ea565b80601f016020809104026020016040519081016040528092919081815260200182805461071f906114ea565b801561076c5780601f106107415761010080835404028352916020019161076c565b820191906000526020600020905b81548152906001019060200180831161074f57829003601f168201915b505050505081525050815260200190600101906106b6565b50505050905090565b61079561063a565b156107d5576040517f08c379a00000000000000000000000000000000000000000000000000000000081526004016107cc9061127a565b60405180910390fd5b6002816040516107e591906111cf565b908152602001604051809103902060000154341115610839576040517f08c379a00000000000000000000000000000000000000000000000000000000081526004016108309061125a565b60405180910390fd5b6000600160003373ffffffffffffffffffffffffffffffffffffffff1673ffffffffffffffffffffffffffffffffffffffff168152602001908152602001600020805480602002602001604051908101604052809291908181526020016000905b828210156109c85783829060005260206000209060040201604051806080016040529081600082015481526020016001820180546108d7906114ea565b80601f0160208091040260200160405190810160405280929190818152602001828054610903906114ea565b80156109505780601f1061092557610100808354040283529160200191610950565b820191906000526020600020905b81548152906001019060200180831161093357829003601f168201915b50505050508152602001600282015481526020016003820160009054906101000a900473ffffffffffffffffffffffffffffffffffffffff1673ffffffffffffffffffffffffffffffffffffffff1673ffffffffffffffffffffffffffffffffffffffff16815250508152602001906001019061089a565b5050505090506000805b8251811015610a96578281815181106109ee576109ed6115f4565b5b60200260200101516020015151845114610a0757610a83565b828181518110610a1a57610a196115f4565b5b602002602001015160200151604051602001610a3691906111cf565b6040516020818303038152906040528051906020012084604051602001610a5d91906111cf565b604051602081830303815290604052805190602001201415610a825760019150610a96565b5b8080610a8e9061154d565b9150506109d2565b508015610ad8576040517f08c379a0000000000000000000000000000000000000000000000000000000008152600401610acf906112da565b60405180910390fd5b600360009054906101000a900473ffffffffffffffffffffffffffffffffffffffff1673ffffffffffffffffffffffffffffffffffffffff166108fc349081150290604051600060405180830381858888f19350505050158015610b40573d6000803e3d6000fd5b50600060405180608001604052803481526020018581526020014281526020013373ffffffffffffffffffffffffffffffffffffffff168152509050600160003373ffffffffffffffffffffffffffffffffffffffff1673ffffffffffffffffffffffffffffffffffffffff168152602001908152602001600020819080600181540180825580915050600190039060005260206000209060040201600090919091909150600082015181600001556020820151816001019080519060200190610c0b929190610c65565b506040820151816002015560608201518160030160006101000a81548173ffffffffffffffffffffffffffffffffffffffff021916908373ffffffffffffffffffffffffffffffffffffffff160217905550505050505050565b828054610c71906114ea565b90600052602060002090601f016020900481019282610c935760008555610cda565b82601f10610cac57805160ff1916838001178555610cda565b82800160010185558215610cda579182015b82811115610cd9578251825591602001919060010190610cbe565b5b509050610ce79190610ceb565b5090565b5b80821115610d04576000816000905550600101610cec565b5090565b6000610d1b610d168461137a565b611355565b905082815260208101848484011115610d3757610d36611657565b5b610d428482856114a8565b509392505050565b600082601f830112610d5f57610d5e611652565b5b8135610d6f848260208601610d08565b91505092915050565b600081359050610d8781611831565b92915050565b600060208284031215610da357610da2611661565b5b600082013567ffffffffffffffff811115610dc157610dc061165c565b5b610dcd84828501610d4a565b91505092915050565b600060208284031215610dec57610deb611661565b5b6000610dfa84828501610d78565b91505092915050565b60008060408385031215610e1a57610e19611661565b5b6000610e2885828601610d78565b925050602083013567ffffffffffffffff811115610e4957610e4861165c565b5b610e5585828601610d4a565b9150509250929050565b6000610e6b8383611111565b905092915050565b6000610e7f8383611174565b905092915050565b610e9081611460565b82525050565b6000610ea1826113cb565b610eab8185611406565b935083602082028501610ebd856113ab565b8060005b85811015610ef95784840389528151610eda8582610e5f565b9450610ee5836113ec565b925060208a01995050600181019050610ec1565b50829750879550505050505092915050565b6000610f16826113d6565b610f208185611417565b935083602082028501610f32856113bb565b8060005b85811015610f6e5784840389528151610f4f8582610e73565b9450610f5a836113f9565b925060208a01995050600181019050610f36565b50829750879550505050505092915050565b610f8981611472565b82525050565b6000610f9a826113e1565b610fa48185611433565b9350610fb48185602086016114b7565b610fbd81611666565b840191505092915050565b6000610fd3826113e1565b610fdd8185611455565b9350610fed8185602086016114b7565b80840191505092915050565b6000611006602283611444565b915061101182611677565b604082019050919050565b6000611029603c83611444565b9150611034826116c6565b604082019050919050565b600061104c600f83611444565b915061105782611715565b602082019050919050565b600061106f602183611444565b915061107a8261173e565b604082019050919050565b6000611092601583611444565b915061109d8261178d565b602082019050919050565b60006110b5601583611444565b91506110c0826117b6565b602082019050919050565b60006110d8600083611428565b91506110e3826117df565b600082019050919050565b60006110fb602583611444565b9150611106826117e2565b604082019050919050565b600060808301600083015161112960008601826111b1565b50602083015184820360208601526111418282610f8f565b915050604083015161115660408601826111b1565b5060608301516111696060860182610e87565b508091505092915050565b600060408301600083015161118c60008601826111b1565b50602083015184820360208601526111a48282610f8f565b9150508091505092915050565b6111ba8161149e565b82525050565b6111c98161149e565b82525050565b60006111db8284610fc8565b915081905092915050565b60006111f1826110cb565b9150819050919050565b600060208201905081810360008301526112158184610e96565b905092915050565b600060208201905081810360008301526112378184610f0b565b905092915050565b60006020820190506112546000830184610f80565b92915050565b6000602082019050818103600083015261127381610ff9565b9050919050565b600060208201905081810360008301526112938161101c565b9050919050565b600060208201905081810360008301526112b38161103f565b9050919050565b600060208201905081810360008301526112d381611062565b9050919050565b600060208201905081810360008301526112f381611085565b9050919050565b60006020820190508181036000830152611313816110a8565b9050919050565b60006020820190508181036000830152611333816110ee565b9050919050565b600060208201905061134f60008301846111c0565b92915050565b600061135f611370565b905061136b828261151c565b919050565b6000604051905090565b600067ffffffffffffffff82111561139557611394611623565b5b61139e82611666565b9050602081019050919050565b6000819050602082019050919050565b6000819050602082019050919050565b600081519050919050565b600081519050919050565b600081519050919050565b6000602082019050919050565b6000602082019050919050565b600082825260208201905092915050565b600082825260208201905092915050565b600081905092915050565b600082825260208201905092915050565b600082825260208201905092915050565b600081905092915050565b600061146b8261147e565b9050919050565b60008115159050919050565b600073ffffffffffffffffffffffffffffffffffffffff82169050919050565b6000819050919050565b82818337600083830152505050565b60005b838110156114d55780820151818401526020810190506114ba565b838111156114e4576000848401525b50505050565b6000600282049050600182168061150257607f821691505b60208210811415611516576115156115c5565b5b50919050565b61152582611666565b810181811067ffffffffffffffff8211171561154457611543611623565b5b80604052505050565b60006115588261149e565b91507fffffffffffffffffffffffffffffffffffffffffffffffffffffffffffffffff82141561158b5761158a611596565b5b600182019050919050565b7f4e487b7100000000000000000000000000000000000000000000000000000000600052601160045260246000fd5b7f4e487b7100000000000000000000000000000000000000000000000000000000600052602260045260246000fd5b7f4e487b7100000000000000000000000000000000000000000000000000000000600052603260045260246000fd5b7f4e487b7100000000000000000000000000000000000000000000000000000000600052604160045260246000fd5b600080fd5b600080fd5b600080fd5b600080fd5b6000601f19601f8301169050919050565b7f53616c646f20696e73756666696369656e746520706572206c2761637175697360008201527f746f000000000000000000000000000000000000000000000000000000000000602082015250565b7f53656920696c2070726f70726965746172696f2064656c20636f6e747261747460008201527f6f2c206e6f6e2070756f692061637175697374617265206c6962726900000000602082015250565b7f4953424e206e6f6e2076616c69646f0000000000000000000000000000000000600082015250565b7f45626f6f6b20676961272070726573656e7465206e656c20636f6e747261747460008201527f6f00000000000000000000000000000000000000000000000000000000000000602082015250565b7f45626f6f6b2067696127206163717569737461746f0000000000000000000000600082015250565b7f54726173666572696d656e746f2066616c6c69746f0000000000000000000000600082015250565b50565b7f4e6f6e2073656920696c2070726f70726965746172696f2064656c20636f6e7460008201527f726174746f000000000000000000000000000000000000000000000000000000602082015250565b61183a8161149e565b811461184557600080fd5b5056fea26469706673582212206eb58ed7ba3104838907fde1cd951cee4bdfa03d7ee2e4f4f4292e5f0f83681764736f6c63430008070033",
  "immutableReferences": {},
  "source": "//SPDX-License-Identifier: UNLICENSED\r\npragma solidity ^0.8.0;\r\n\r\ncontract EBookStoreFinal {\r\n  struct Ebook {\r\n    uint256 price;\r\n    string isbn;\r\n  }\r\n\r\n  struct EbookBuyed {\r\n    uint256 price;\r\n    string isbn;\r\n    uint purchaseDate;\r\n    address buyer;\r\n  }\r\n\r\n  Ebook[] private ebookNelContrattolist;\r\n  mapping(address => EbookBuyed[]) private ebookAcquistati;\r\n  mapping(string => Ebook) private ebookNelContratto;\r\n\r\n  address private seller;\r\n  uint256 private total;\r\n\r\n  constructor() {\r\n    seller = msg.sender;\r\n    addEBook(6425569239043100, \"1234567890123\");\r\n  }\r\n\r\n  function addEBook(uint256 price, string memory isbn) public {\r\n    require(isOwner(), \"Non sei il proprietario del contratto\");\r\n    require(bytes(isbn).length == 13, \"ISBN non valido\");\r\n    require(ebookNelContratto[isbn].price == 0, \"Ebook gia' presente nel contratto\");\r\n    Ebook memory ebook = Ebook(price, isbn);\r\n    ebookNelContratto[isbn] = ebook;\r\n    ebookNelContrattolist.push(ebook);\r\n  }\r\n\r\n  //TODO: Acquistare tramite ISBN!\r\n  function buyEBook(string memory isbn) public payable {\r\n    require(!isOwner(), \"Sei il proprietario del contratto, non puoi acquistare libri\");\r\n    require(msg.value <= ebookNelContratto[isbn].price, \"Saldo insufficiente per l'acquisto\");\r\n    EbookBuyed[] memory ebooks = ebookAcquistati[msg.sender];\r\n    bool giaAcquistato = false;\r\n    for (uint256 i = 0; i < ebooks.length; i++) {\r\n      if (bytes(isbn).length != bytes(ebooks[i].isbn).length) {\r\n        continue;\r\n      }\r\n      if (keccak256(abi.encodePacked(isbn)) == keccak256(abi.encodePacked(ebooks[i].isbn))) {\r\n        giaAcquistato = true;\r\n        break;\r\n      }\r\n    }\r\n    require(!giaAcquistato, \"Ebook gia' acquistato\");\r\n    payable(seller).transfer(msg.value);\r\n    EbookBuyed memory ebookcomprato = EbookBuyed(msg.value, isbn, block.timestamp, msg.sender);\r\n    ebookAcquistati[msg.sender].push(ebookcomprato);\r\n  }\r\n\r\n  function getPurchasedEBooks() public view returns (EbookBuyed[] memory) {\r\n    return ebookAcquistati[msg.sender];\r\n  }\r\n\r\n  function getAllEBooks() public view returns (Ebook[] memory) {\r\n    return ebookNelContrattolist;\r\n  }\r\n\r\n  function isOwner() public view returns (bool) {\r\n    return msg.sender == seller;\r\n  }\r\n\r\n  function withdraw(uint amount) public {\r\n    require(isOwner(), \"Non sei il proprietario del contratto\");\r\n    (bool success,) = seller.call{value : amount}(\"\");\r\n    require(success, \"Trasferimento fallito\");\r\n  }\r\n\r\n  function getContractBalance() public view returns (uint){\r\n    require(isOwner(), \"Non sei il proprietario del contratto\");\r\n    return address(this).balance;\r\n  }\r\n\r\n}\r\n",
  "sourcePath": "C:\\Users\\vinciraia99\\IdeaProjects\\bookproject\\Blockchain\\contracts\\EbookStoreFinal.sol",
  "compiler": {
    "name": "solc",
    "version": "0.8.7+commit.e28d00a7.Emscripten.clang"
  },
  "schemaVersion": "3.4.12",
  "updatedAt": "2023-02-20T02:23:27.158Z",
  "networkType": "ethereum",
  "devdoc": {
    "kind": "dev",
    "methods": {},
    "version": 1
  },
  "userdoc": {
    "kind": "user",
    "methods": {},
    "version": 1
  }
}